:100000000C943A000C944D0F0C944D0F0C944D0F22
:100010000C944D0F0C944D0F0C944D0F0C944D0FF0
:100020000C944D0F0C944D0F0C944D0F0C944D0FE0
:100030000C944D0F0C944D0F0C944D0F0C944D0FD0
:100040000C944D0F0C944D0F0C944D0F0C944D0FC0
:100050000C944D0F0C944D0F0C944D0F0C944D0FB0
:100060000C944D0F0C944D0F0100011380011301EE
:1000700015001EA811241FBECFEFD8E0DEBFCDBFF4
:10008000E8E6F0E040E017C0B591A59135912591E3
:10009000059107FD0CC095918591EF01F92FE82F8F
:1000A00005900D92A217B307D9F7FE0104C01D9267
:1000B000A217B307E1F7E437F40731F70E94C80647
:0800C0000C94D90EF894FFCF57
:1000C800202043414C4942524154494E4720200088
:1000D8002052454D4F564520205745494748542002
:1000E800002020504C454153452020574149542079
:1000F80020002020202046494E49534845442020CE
:100108002020005745494748543A2000302E3030C7
:1001180067202020202000252E326600672020201E
:0B0128002020004B672020202020003A
:1001330068076C094C836A9074A07AC00080688851
:0601430000846C820081C3
:10014900494E4600696E66004E414E006E616E0072
:06015900286E696C29000C
:10016000A6E2B0E0E6EBF0E00C94860D98A38F8F4A
:100170007F8B6E8B288FFB010190F081E02DFA8739
:10018000E987FB0102811381248135813B8B2A8B16
:10019000808591859AA389A30680F781E02DFA8353
:1001A000E983FA0180809180A280B38020E030E072
:1001B000A901C501B4010E94380F87FF06C0B7FA34
:1001C000B094B7F8B0948DE204C0F985F2FF69C32A
:1001D0008BE2E981FA8180832A893B8921503109A8
:1001E0003C832B8341E050E0598B488B06C08A89C1
:1001F0009B899C838B83198A188AD501C401BF7798
:100200000097E0E8AE07EFE7BE07F1F4F88D2F2F77
:10021000FF0F330B2154310989819A81488959890B
:10022000840F951F2A31310520F449E451E060E044
:1002300003C04DE451E060E00E94A90E89819A81DB
:100240003C01E0E88E2E1AC30197A048BF47F0F0AA
:10025000488D242F440F330B2154310989819A8111
:10026000E889F9898E0F9F1F2A31310520F441E575
:1002700051E060E003C045E551E060E00E94A90E56
:1002800029813A81390140E8842EF8C220E030E02B
:10029000A901C501B4010E94380FC12CD12C20E85E
:1002A000E22E2FE3F22E212C312C882309F487C073
:1002B0008D829E82AF82B88620E030E040E251E439
:1002C000C701B6010E94460F2B013C01D501C401B4
:1002D00084199509A609B709B7FF07C0B095A0957D
:1002E000909581959F4FAF4FBF4F0297A105B105E4
:1002F00034F45FEF251A350A73016201DDCFA501E1
:100300009401C301B2010E94380F87FDF2CF8D81A5
:100310009E81AF81B8858C199D09AE09BF090196F0
:10032000A11DB11D0397A105B10508F446C01E82A9
:100330001D82A5019401C701B6010E943D0F181648
:10034000F4F584ED28168EEF3806E4F4ED81FE8195
:10035000EF2BC1F420E030E040E85AE5C501B401DC
:100360000E94460F4B015C0120E030E040E85AE576
:10037000C701B6010E94460F6B017C0121E030E00D
:100380003E832D8320E030E040E251E4C701B60116
:100390000E94420F6B017C0131E0231A3108D50124
:1003A000C4018C199D09AE09BF090196A11DB11D9B
:1003B0000397A105B10508F0BCCF46015701488D50
:1003C000042E000C550B598F488FCA010E94070F4D
:1003D0008A8F17FD03C01E830D8304C086E090E062
:1003E0009E838D839A8D973639F4012B41F4E1E099
:1003F000F0E0FE83ED8303C04A8D4F8710C02CEFE1
:1004000022162FEF32060CF451C22D813E812216A6
:1004100033060CF04BC237FE4CC256E65F878D8127
:100420009E8101969E838D839F85963699F437FE33
:1004300008C0C12CD12C90E8E92E9FE3F92E212C85
:10044000312CEA8DE73631F02D813E81220D331DAE
:100450003E832D831C2DDDA2EBA20F2D8B869C8667
:10046000AD86BE861D8A1C8A8C899D89ED81FE81A0
:100470008E179F07DCF5212F3DA14BA1502F6B85D7
:100480007C858D859E850E94420F0E944F082B011E
:100490003C010E942B0F6B8FA3019201612F7DA164
:1004A0008BA1902F0E94460F2B853C854D855E8544
:1004B0000E940F0F9B01AC0150582B873C874D8742
:1004C0005E8720E030E040E251E4612F7DA18BA106
:1004D000902F0E94420F162F7DA38BA3092F4C89CA
:1004E0005D894F5F5F4F5D8B4C8BBECF20E030E06E
:1004F00040EA50E4612F7DA18BA1902F0E94460F0E
:100500002B013C019B01AC016B857C858D859E8513
:100510000E94380F87FD0DC0A30192016B857C8579
:100520008D859E850E94380F811106C0FB8DF0FDE0
:1005300003C0412C512C3201A5019401C301B20129
:100540000E94100F4B015C0120E030E040E251E4DA
:10055000C701B6010E94460F6B877C8B182F092FAD
:100560009B01482F592FC501B4010E943D0F87FD03
:1005700011C02FEF221A320A3F85363679F44D81A9
:100580005E814F5F5F4F5E834D835B855DA38C898A
:100590008EA30BC0CB86DC8A1E2D0F2D9F85953632
:1005A00031F0EB85EDA3FC89FEA3710106C02B851C
:1005B0002DA33C893EA3E12CF12C48885988C12CFD
:1005C000D12C1D8A1C8A1C861B8649855A85407140
:1005D00055275CA34BA32B853C854D815E81241759
:1005E000350734F08C899D89892B09F497C0A3C005
:1005F0003201EE89FF898085918505974816590655
:1006000088F72DA13EA1412F502FC501B4010E94B2
:10061000420F0E944F086B8F7C8F8D8F9E8F0E94A0
:100620002B0F6A30710514F069E070E08BA19CA17A
:10063000892B69F46115710551F49A8D973639F457
:10064000F7FE05C03601EFEF6E1A7E0A3BC02C891B
:100650003D89232BA1F4F7FE12C03FEF431A530A42
:10066000E981FA81E60DF71D4EE240838B819C8182
:1006700001979C838B83E1E0F0E0FD8BEC8BE981BB
:10068000FA81E40DF51D36016114710431F020E3A7
:10069000219331E0631A7108F7CFC601840D951DCF
:1006A0002B813C812C193D092C014FEF441A540A2F
:1006B000E981FA81E80FF91F605D6083C901019744
:1006C0009C838B832B8D3C8D4D8D5E8D6DA17EA18A
:1006D000812F902F0E94460FA50194010E940F0FB9
:1006E0004B015C01B7FAB094B7F8B09420E030E069
:1006F00040E251E46DA17EA1812F902F0E94420F14
:100700006DA37EA3182F092F91E0E91AF108EB855C
:10071000FC853196FC87EB8763015DCFF985F4FF9B
:100720000AC0E981FA81E40DF51D8EE28083920111
:100730002F5F3F4F290149815A81440D551D5E832A
:100740004D83FA011082FF85F53609F061C0E98119
:10075000FA8129A13AA1E20FF31F3197108237FEE7
:1007600006C031942194310801E010E002C000E09D
:1007700010E0E9A1FAA1319749815A81E40FF51FF0
:1007800022E030E08AE0E82EF12CCF0149815A8145
:10079000841B950B2114310479F0C101B7010E942B
:1007A0004D0E805D82931B01215031098B819C810C
:1007B00001979C838B83E9CF1216130674F3FC0117
:1007C0003197E40FF51F012B11F42BE201C02DE24C
:1007D00020830297E981FA81E80FF91F288D398D6E
:1007E000215431092A31310510F025E601C025E4F4
:1007F00020832B813C81225031093C832B83481676
:10080000590634F4AF0160E88D819E810E94A90EE3
:1008100049815A813A0180E8882E998591FF2EC03E
:1008200090FD2CC0EB81FC811E161F063CF5882D27
:10083000B3010E94220E29813A81820F931F9C01ED
:1008400049815A81241B350BE889F9892E173F0706
:100850004CF0FC012081EB81FC81E80FF91F208323
:100860000197EDCF4B815C8160E370E089819A81D3
:100870008E0F9F1F0E94F60E1B8A1A8A882DB301C5
:100880000E94220EE984FA840A891B899C01682D42
:10089000A3018F8D98A10E94440BA696E2E10C94CF
:1008A000D80D598553FFA3CC80E293CC35E63F8722
:0808B000D1CD46E64F87CECD05
:1008B8002F923F924F926F927F928F929F92AF9218
:1008C800BF92CF92DF92EF92FF920F931F93CF9335
:1008D800DF93CDB7DEB72E970FB6F894DEBF0FBE05
:1008E800CDBF4C016B0138011A8219828FEF9FEF3F
:1008F8009C838B831E821D8258874F833A87298762
:10090800A12CB12CD6012D913D914C912A0D3B1D66
:10091800411DB7FC4A95F901849147FD80818111F9
:1009280016C0F601208331834283F901849147FD83
:100938008081853209F00FC21901442EFFEF2F1A6A
:100948003F0A4F0AD6012D923D924C921BC0853228
:1009580041F3B401082E000C990B0E94F80A4FEFDE
:10096800A41AB40ACFCF2C32DCF02D3229F5298114
:100978003A8121603A8329830196A11DF60180837B
:100988009183A283F60180819181A281FC01249147
:10099800A7FD20812B3239F729813A812460EACFDB
:1009A800203221F429813A812860E4CF233251F49E
:1009B80029813A812061DECF203321F429813A81CF
:1009C8002260D8CFB701C6010E945F0C9E838D8339
:1009D80097FF0BC029813A81F1E02F273A832983B9
:1009E8009195819591099E838D8389819A8180FF54
:1009F80003C08D7F9A838983F60180819181A281CA
:100A0800FC012491A7FD20812E3261F40196A11DDD
:100A1800F60180839183A283B701C6010E945F0C0F
:100A28009C838B83C6010E94A90A182FD6012C919A
:100A380011968C91119712969C91E22FF82F849120
:100A480097FD8081082E000C990B0E94070F8936AC
:100A580009F44AC084F4833609F419C134F48532A0
:100A680009F445C18136E1F050C18436E9F1883690
:100A78000CF4E9C04AC1803709F4B0C03CF48E36A2
:100A880009F4D6C08F3609F46DC03FC1853709F423
:100A98004AC0883709F485C0833709F036C10DC1CB
:100AA800612F70E0A701CE010B960E94660D892B7D
:100AB80009F448C1F60180819181A2819C014A2FE5
:100AC8002F5F3F4F4F4F208331834283FC01249196
:100AD800A7FD2081AE01455F5F4FBE016F5F7F4F6D
:100AE800C4010E9400002BC1612F70E0970141E012
:100AF80050E0CE010B960E940000892B09F422C118
:100B0800F60180819181A2810196A11D8083918344
:100B1800A283AE01455F5F4FBE016F5F7F4FC40187
:100B28000E9400000CC1612F70E0970140E050E086
:100B3800CE010B960E940000892B09F403C1F6012F
:100B480080819181A2810196A11D80839183A283D6
:100B5800AE01455F5F4FBE016F5F7F4FC4010E94CA
:100B68000000EDC0612F70E0970140E050E0CE0139
:100B78000B960E940000892B09F4E4C0F6018081DD
:100B88009181A2810196A11D80839183A283AE01E8
:100B9800455F5F4FBE016F5F7F4FC4010E94000039
:100BA800CEC0612F70E0970140E050E0CE010B9677
:100BB8000E940000892B09F4C5C0F601808191814B
:100BC800A2819C014A2F2F5F3F4F4F4F20833183D3
:100BD8004283FC012491A7FD208120C0970140E0B9
:100BE80050E060EF70E0CE010B960E940000892B68
:100BF80009F4A8C0F60180819181A2810196A11D06
:100C080080839183A2838B859C85892B31F400E0B6
:100C180010E029E531E040E08CC028E7AE01455FEF
:100C28005F4FBE016F5F7F4FC4010E94000087C005
:100C3800A501460D571D612F70E09701CE010B9657
:100C48000E9400007FC0612F70E0A701CE010B96C3
:100C58000E94660D892B09F475C0F6018081918187
:100C6800A2819C014A2F2F5F3F4F4F4F2083318332
:100C78004283FC012491A7FD2081AE01455F5F4FAF
:100C8800BE016F5F7F4FC4010E94B00058C010388A
:100C980009F058C0F60180819181A2810196A11DB9
:100CA80080839183A283D701ED91FC911197CF01A5
:100CB80002968D939C93808126C0103809F042C01B
:100CC800F60180819181A2810196A11D8083918383
:100CD800A283D701ED91FC911197CF0103968D93D3
:100CE8009C9320813181428100E010E022C01038BD
:100CF80049F5F6012081318142812F5F3F4F4F4FE7
:100D08002083318342838B870EC085E28B87F6016F
:100D18002082318242821A8219821E821D828FEFBE
:100D28009FEF9C838B839E01255F3F4F40E801E046
:100D380010E0BE016F5F7F4FC4010E9400008A0D62
:100D48009B1D0AC0F60180819181A2810196A11D97
:100D580080839183A283C5012E960FB6F894DEBFD7
:100D68000FBECDBFDF91CF911F910F91FF90EF90F4
:100D7800DF90CF90BF90AF909F908F907F906F90B3
:080D88004F903F902F90089559
:100D9000CF93DF9300D000D00F92CDB7DEB752983B
:100DA000539A0E94C30E0E94E40E0E94380E0E94C5
:100DB000D307FF24F394312C0F2EFFE1CF2EF1E067
:100DC000DF2EF0E0EF2EF02D82E091E0A0E88983A5
:100DD0009A83AB830E94A20D609307017093080170
:100DE0008093090190930A0100910B0110910C016D
:100DF00020910D0130910E01601B710B820B930B42
:100E00000E94240C2B013C0120E53DE446EE53E416
:100E10000E94420F9B01AC010E94100F4B015C012C
:100E200020E53DE446EE53ECC301B2010E94420FBF
:100E30009B01AC01C501B4010E94100F60930F012A
:100E400070931001809311019093120181E090E062
:100E50000E94020A6BE071E080E00E94BD0D90915B
:100E60000F019D83A0911001AC831091110100919D
:100E700012017F2C20E030E040EA50EC692F7A2FFD
:100E8000812F902F0E943D0F18160CF0732C7720A5
:100E9000B1F020E030E040E050E4BD81AC816B2F48
:100EA0007A2F812F902F0E94380F880F880B8F2167
:100EB00031F064E171E080E00E94BD0D71C020E07E
:100EC00030E04AE754E4BD81AC816B2F7A2F812F4B
:100ED000902F0E94380F8823FCF40F931F932C81CE
:100EE0002F938D818F93EF92DF92CF9282E091E0EA
:100EF0009F938F930E94750E69817A818B810E94E6
:100F0000BD0D64E271E080E00E94BD0D0FB6F89463
:100F1000DEBF0FBECDBF44C020E030EC49E754E453
:100F2000BD81AC816B2F7A2F812F902F0E943D0FB6
:100F30001816B4F520E030E04AE754E4BD81AC81F6
:100F40006B2F7A2F812F902F0E94420F262F372F41
:100F5000462F572F682F792F40930F015093100180
:100F600060931101709312019F938F933F932F937E
:100F7000EF92DF92CF9282E091E09F938F930E9455
:100F8000750E69817A818B810E94BD0D6BE271E0E3
:100F900080E00E94BD0D0FB6F894DEBF0FBECDBF3E
:060FA0000E94990E17CF1C
:100FA6000F931F93CF93DF9368EC70E080E00E946D
:100FB600BD0D2FEF8DE399E4215080409040E1F77D
:100FC60000C0000081E090E00E94020A68ED70E037
:100FD60080E00E94BD0D2FEF8BE792E92150804003
:100FE6009040E1F700C0000081E090E00E94020A14
:100FF60069EE70E080E00E94BD0D10920B01109228
:101006000C0110920D0110920E01C4E6D0E00E9470
:10101600A20D00910B0110910C0120910D01309150
:101026000E01DC01CB01800F911FA21FB31F80931D
:101036000B0190930C01A0930D01B0930E01219723
:1010460031F7BC01CD0124E630E040E050E00E94DB
:101056000B0E20930B0130930C0140930D0150931E
:101066000E0181E090E00E94020A6AEF70E080E0E3
:101076000E94BD0D2FEF87EA91E6215080409040F7
:10108600E1F700C0000081E090E00E94020ADF91D3
:08109600CF911F910F91089505
:10109E008F929F92AF92BF92CF92DF92EF92FF927A
:1010AE000F931F938B019C0157E13695279517954A
:1010BE0007955A95D1F71127A8014F575109473176
:1010CE0051050CF045C057FD2DC00FEF1FEF2FE758
:1010DE0030E004C035952795179507954A95D2F7B8
:1010EE004801590186229722A822B92289288A28E6
:1010FE008B2871F197FF07C0DC01CB01800F911F88
:10110E00A21FB31F02C0DC01CB01009510952095E4
:10111E00309580239123A223B323482F392F2A2FD2
:10112E005B2F1AC097FF0FC08B019C01000F111F80
:10113E00221F331F012B022B032B51F040E030E016
:10114E0020E85FEB09C040E030E020E050E004C052
:10115E00462F372F282F592F642F732F822F952F1D
:10116E001F910F91FF90EF90DF90CF90BF90AF90B7
:06117E009F908F90089580
:1011840010C00E941D0F58F00E94160F40F029F461
:101194005F3F29F00C94320F51110C94250F0C94DD
:1011A4004A0F0E94220D68F39923B1F3552391F35A
:1011B400951B550BBB27AA2762177307840738F0C2
:1011C4009F5F5F4F220F331F441FAA1FA9F335D01F
:1011D4000E2E3AF0E0E832D091505040E695001CD3
:1011E400CAF72BD0FE2F29D0660F771F881FBB1F8D
:1011F400261737074807AB07B0E809F0BB0B802D6B
:10120400BF01FF2793585F4F3AF09E3F510578F096
:101214000C94320F0C94250F5F3FE4F3983ED4F303
:10122400869577956795B795F7959F5FC9F7880F6A
:10123400911D9695879597F90895E1E0660F771FBC
:10124400881FBB1F621773078407BA0720F0621B4D
:0E125400730B840BBA0BEE1F88F7E09508951C
:101262000FC00E94160F38F00E941D0F20F0952328
:1012720011F00C94320F0C944A0F11240C94250F88
:101282000E94220D70F3959FC1F3950F50E0551FF8
:10129200629FF001729FBB27F00DB11D639FAA27C9
:1012A200F00DB11DAA1F649F6627B00DA11D661F18
:1012B200829F2227B00DA11D621F739FB00DA11D39
:1012C200621F839FA00D611D221F749F3327A00DF3
:1012D200611D231F849F600D211D822F762F6A2F8F
:1012E20011249F5750409AF0F1F088234AF0EE0FF4
:1012F200FF1FBB1F661F771F881F91505040A9F721
:101302009E3F510580F00C94320F0C94250F5F3FE5
:10131200E4F3983ED4F3869577956795B795F7955C
:10132200E7959F5FC1F7FE2B880F911D96958795D4
:0413320097F908958A
:1013360011C00E94160F38F00E941D0F20F039F4DC
:101346009F3F19F426F40C944A0F0EF4E095E7FB40
:101356000C94320FE92F0E94220D58F3BA17620738
:1013660073078407950720F079F4A6F50C94240FEB
:101376000EF4E0950B2EBA2FA02D0B01B9019001AA
:101386000C01CA01A0011124FF27591B99F0593FEE
:1013960050F4503E68F11A16F040A22F232F342F36
:1013A6004427585FF3CF469537952795A795F04084
:1013B6005395C9F77EF41F16BA0B620B730B840B99
:1013C600BAF09150A1F0FF0FBB1F661F771F881F51
:1013D600C2F70EC0BA0F621F731F841F48F48795A9
:1013E60077956795B795F7959E3F08F0B0CF93959B
:0E13F600880F08F09927EE0F979587950895B8
:10140400DF92EF92FF920F931F93CF93DF93EC0140
:101414008C01007F112708600E94ED0E0F2EF3E16E
:10142400EF2EF1E0FF2EF02DF7018081880F0E944E
:10143400CE0E802F84600E94CE0E8FE39FE1019731
:10144400F1F700C00000802F8B7F0E94CE0E0CEBC2
:1014540010E00F2EF4E9DF2EF02DF801D082C295B2
:10146400D295D07FDC27C07FDC27C8600E94ED0EB8
:10147400F7018081880F0E94CE0E8C2F84600E9419
:10148400CE0E8FE39FE10197F1F700C000008C2F8F
:101494008B7F0E94CE0EF801D082DF91CF911F91F5
:0A14A4000F91FF90EF90DF90089584
:1014AE006F927F928F92EF92FF920F931F93CF9333
:1014BE00DF93CDB7DEB761970FB6F894DEBF0FBEE0
:1014CE00CDBFFE01319651E1DF011D925A95E9F72C
:1014DE00A2E0B1E0BA83A9839C838B8377FF09C016
:1014EE008FE490E090930101809300018FEF9FEFC6
:1014FE0019C03901842E7C01615071097F836E837E
:10150E009801682DA301CF010E94F30D48855985DE
:10151E002E813F814217530708F49A01F701E20F1B
:10152E00F31F108261960FB6F894DEBF0FBECDBFCB
:10153E00DF91CF911F910F91FF90EF908F907F9041
:04154E006F900895FD
:10155200CF92DF92EF92DC0190E0292F30E0220F50
:10156200331F6901032E000CEE086E2DA6014D5C9F
:101572005E4F6F4F6A01E62EFA018491E7FC80818B
:1015820081110DC02F5F3F4F032E000C440B2D5CC9
:101592003E4F4F4FF901849147FD808124C0CD9089
:1015A200DD90EC901297F6014491E7FC40818413A0
:1015B20015C02F5F3F4F032E000C440B2D5C3E4F96
:1015C2004F4FF901949147FD90815FEFC51AD50AFB
:1015D200E50ACD92DD92EC92129701C09F5F9B309B
:0E15E20008F4BBCF892FEF90DF90CF900895D3
:1015F0000F931F93CF93DF93DB01109719F48FEFB5
:101600009FEF3DC02D913C91119730FF25C017965B
:101610004D915C91189715962D913C911697421714
:10162000530778F41296ED91FC91139780831296EC
:101630002D913C9113972F5F3F4F13963C932E9320
:10164000129717962D913C9118972F5F3F4F189640
:101650003C932E93179713C01D96ED91FC911E9706
:10166000309769F2EB01092F182F0995892B39F66C
:101670008F819885019698878F83812F902FDF9196
:08168000CF911F910F91089515
:101688006F927F928F92AF92BF92CF92DF92EF923A
:10169800FF920F931F93CF93DF935C013A01862E3D
:1016A800E901670181E0C822DD24E0FC03C02017BE
:1016B800310758F09E01682DA301C5010E949B0CBB
:1016C800C017D10710F0CE0118C07801EC1AFD0A36
:1016D800E114F10449F0B50180E290E00E94F80AB3
:1016E80081E0E81AF108F4CFCD2831F49E01682D85
:1016F800A301C5010E949B0CC801DF91CF911F91E6
:101708000F91FF90EF90DF90CF90BF90AF908F90A8
:061718007F906F90089520
:10171E00A3E8B0E0E5E9FBE00C948C0D5C01490117
:10172E00CF57DF4F488359836A83C158D040C12CAD
:10173E00D12CCF57DF4F2881C158D040CE57DF4F25
:10174E009881C258D040CD57DF4F8881C358D040C2
:10175E00E22FF92F949187FD90819923E9F074017E
:10176E00860120E830E0AE014F5F5F4FBE016F573C
:10177E007F4FC5010E945C048C0D9D1D8C159D052F
:10178E004CF48FE490E090930101809300018FEF71
:10179E009FEF03C06C01CDCFC601CD57DF4FECE0FC
:0417AE000C94DE0DAC
:1017B200EF92FF920F931F93CF93DF93C82FD82FEF
:1017C200D07F0E94ED0E0F2EF3E1EF2EF1E0FF2EFF
:1017D200F02DF7018081880F0E94CE0E8D2F8D6033
:1017E2000E94CE0E8FE39FE10197F1F700C0000047
:1017F2008D2F89600E94CE0E0CEB10E0D4E9F80127
:10180200D083C295C07F0E94ED0EF7018081880FC0
:101812000E94CE0E8C2F8D600E94CE0E8FE39FE130
:101822000197F1F700C000008C2F89600E94CE0E54
:10183200F801D083DF91CF911F910F91FF90EF902C
:02184200089507
:10184400E89409C097FB3EF4909580957095619556
:101854007F4F8F4F9F4F9923A9F0F92F96E9BB270C
:101864009395F695879577956795B795F111F8CF88
:10187400FAF4BB0F11F460FF1BC06F5F7F4F8F4FF3
:101884009F4F16C0882311F096E911C0772321F0E9
:101894009EE8872F762F05C0662371F096E8862F81
:1018A40070E060E02AF09A95660F771F881FDAF7D8
:0A18B400880F9695879597F908951F
:1018BE00DC012D913D914C911297F901849147FDD8
:1018CE0080818A3221F080E090E07AE011C02F5FB3
:1018DE003F4F4F4F2D933D934C93DB01ED91FC9178
:1018EE001197CF0102968D939C93808191810895DB
:1018FE002D913D914C911297F901549147FD5081D4
:10190E0050535A3080F4789FF001799FF00D1124D6
:10191E00CF01850F911D2F5F3F4F4F4F2D933D935D
:08192E004C931297E5CF0895D8
:101936006F927F928F92CF92DF92EF920F931F93C7
:10194600CF93DF938C016A01E62EE9013A01862ED8
:10195600620E731E811C37FD8A94C614D704E804F0
:1019660079F0F6018491E7FC8081B801082E000C1D
:10197600990B0E94F80A8FEFC81AD80AE80AEDCF29
:10198600CE01DF91CF911F910F91EF90DF90CF9015
:081996008F907F906F9008957F
:10199E000E942A0D88F09F5798F0B92F9927B751BA
:1019AE00B0F0E1F0660F771F881F991F1AF0BA95F5
:1019BE00C9F714C0B13091F00E94240FB1E0089520
:1019CE000C94240F672F782F8827B85F39F0B93F12
:1019DE00CCF3869577956795B395D9F73EF49095A8
:0E19EE008095709561957F4F8F4F9F4F0895A4
:1019FC00990F0008550FAA0BE0E8FEEF1616170614
:101A0C00E807F907C0F012161306E407F50798F07B
:101A1C00621B730B840B950B39F40A2661F0232B94
:101A2C00242B252B21F408950A2609F4A140A69510
:081A3C008FEF811D811D08954B
:101A440057FD9058440F551F59F05F3F71F047956B
:101A5400880F97FB991F61F09F3F79F08795089550
:101A6400121613061406551FF2CF4695F1DF08C06F
:101A7400161617061806991FF1CF8695710561058C
:041A84000894089525
:101A8800A1E21A2EAA1BBB1BFD010DC0AA1FBB1F7A
:101A9800EE1FFF1FA217B307E407F50720F0A21BEC
:101AA800B30BE40BF50B661F771F881F991F1A9459
:101AB80069F760957095809590959B01AC01BD0183
:041AC800CF010895AD
:101ACC00FA0160387105CCF0623871051CF063388E
:101ADC00710599F4A081B1819D012C5F3F4F318339
:101AEC0020834D915D916D917C91FC0140835183DC
:101AFC006283738381E090E0089580E090E0089524
:101B0C002F923F924F925F926F927F928F929F9201
:101B1C00AF92BF92CF92DF92EF92FF920F931F93EF
:101B2C00CF93DF93CDB7DEB7CA1BDB0B0FB6F894A0
:081B3C00DEBF0FBECDBF09940E
:101B44005A9A5B984A99FECF28E180E090E0DC0144
:101B54005B9A880F991FAA1FBB1F5B984A9B03C0FF
:101B64000196A11DB11D215099F75B9A5B98BC01A8
:061B7400CD018058089528
:101B7A00CF92DF92EF926B01E82EFB018491E7FC92
:101B8A008081882361F00E94D90B8FEFC81AD80A86
:101B9A00E80AF6018491E7FC80818111F4CFEF9085
:061BAA00DF90CF900895CA
:101BB0002A88398848885F846E847D848C849B84DD
:101BC000AA84B984C884DF80EE80FD800C811B81EB
:101BD000AA81B981CE0FD11D0FB6F894DEBF0FBE1A
:061BE000CDBFED010895E8
:101BE600A2E0B0E0E9EFFDE00C94940D8C013A839D
:101BF60029839E012F5F3F4F0E948F0BF8012081A2
:101C060024FF02C08FEF9FEF2296E4E00C94E60DCE
:101C1600052E97FB1EF400940E94FF0E57FD07D079
:101C26000E94440D07FC03D04EF40C94FF0E509511
:0E1C36004095309521953F4F4F4F5F4F0895D9
:101C4400CF92DF92EF926B01E82EA82FCB01FC011B
:101C54002491A7FD2081222319F00196A11DF7CF1D
:0C1C64008C199D09EF90DF90CF9008953F
:101C700082E090E00E94020A88E290E00E94020A5C
:101C80008CE090E00E94020A81E090E00E94020A4B
:0A1C900080E890E00E94020A089527
:101C9A0097FB072E16F4009407D077FD09D00E940F
:101CAA00610E07FC05D03EF4909581959F4F0895EB
:081CBA00709561957F4F0895BC
:101CC200AA1BBB1B51E107C0AA1FBB1FA617B70760
:101CD20010F0A61BB70B881F991F5A95A9F780957C
:081CE2009095BC01CD010895AD
:101CEA00A0E0B0E0EBE7FEE00C94960D9E01265FC3
:101CFA003F4F4F81588569858D819E810E94B70E1D
:061D0A00E2E00C94E80D7C
:101D1000092E0394000C11F4882352F0BB0F40F4F9
:101D2000BF2B11F460FF04C06F5F7F4F8F4F9F4F39
:021D3000089514
:101D32005B988FE39FE10197F1F700C000005B9A87
:101D42008FE39FE10197F1F700C000005B980895CF
:101D52009A01462FDC01F901549147FD50815D93B0
:0C1D62002F5F3F4F4F4F5111F6CF0895F7
:101D6E000F931F9389019A01462F6FEF7FE70E9411
:081D7E00570A1F910F9108950F
:101D86005B982FEF81EE94E0215080409040E1F780
:061D960000C000000895EA
:101D9C008093BB0084E88093BC00ECEBF0E0808186
:061DAC008823ECF7089506
:101DB200EC010E94520F0E94510FCE010E94530F5C
:061DC200CE010E944F0F4C
:101DC8001092B90084E08093BC0088E48093B80046
:021DD80008956C
:101DDA0084EA8093BC00ECEBF0E080818823ECF786
:021DEA0008955A
:101DEC00FC01480F591FE417F50711F06193FBCF65
:021DFC00089548
:101DFE0090958095709561957F4F8F4F9F4F089569
:101E0E009C01215431092A31310508F4806208956C
:0E1E1E005058BB27AA270E949B090C94880EDF
:0E1E2C0000240A9416161706180609060895D3
:0E1E3A0000240A9412161306140605060895D5
:0E1E4800E894BB2766277727CB0197F908950A
:0E1E56000E94CF0C6894B1110C94250F0895D2
:0C1E640097F99F6780E870E060E0089547
:0A1E70000E94FE0C08F481E00895C2
:0A1E7A000E94FE0C08F48FEF08959B
:081E84000E94C2080C94880EB4
:081E8C000E9431090C94880E3C
:061E94009FEF80EC0895B1
:041E9A000C940000A4
:041E9E000E9462003C
:021EA2000895A1
:021EA40008959F
:021EA60008959D
:021EA800270011
:00000001FF
