:100000000C9446000C941D110C941D110C941D11A0
:100010000C941D110C941D110C941D110C941D11A8
:100020000C941D110C941D110C941D110C941D1198
:100030000C941D110C941D110C941D110C941D1188
:100040000C941D110C941D110C941D110C941D1178
:100050000C941D110C941D110C941D110C941D1168
:100060000C941D110C941D1101000102800102016C
:100070008900224801890191800191019E0022CFCF
:10008000019E01AE8001AE01B20022DC11241FBE30
:10009000CFEFD8E0DEBFCDBFE8E6F0E040E017C02C
:1000A000B591A59135912591059107FD0CC09591CC
:1000B0008591EF01F92FE82F05900D92A217B30754
:1000C000D9F7FE0104C01D92A217B307E1F7EC387F
:1000D000F40731F70E9404060C949110F894FFCFB6
:1000E000A6E2B0E0E6E7F0E00C947B0F98A38F8FD8
:1000F0007F8B6E8B288FFB010190F081E02DFA87BA
:10010000E987FB0102811381248135813B8B2A8B96
:10011000808591859AA389A326803780FA01808003
:100120009180A280B38020E030E0A901C501B40134
:100130000E94081187FF06C0B7FAB094B7F8B094D0
:100140008DE204C0598552FF47C38BE2F1018083E1
:100150002A893B89215031093C832B8341E050E0BF
:10016000598B488B06C08A899B899C838B83198A0B
:10017000188AD501C401BF770097E0E8AE07EFE722
:10018000BE0799F4F88D2F2FFF0F330B215431093F
:1001900088899989820D931D2A31310518F469E700
:1001A00071E019C06DE771E016C00197A048BF4724
:1001B000A8F0488D242F440F330B2154310988892E
:1001C0009989820D931D2A31310518F461E871E097
:1001D00002C065E871E00E94C810EDC220E030E086
:1001E000A901C501B4010E940811C12CD12C20E83D
:1001F000E22E2FE3F22E1A821982882309F48CC092
:100200008D829E82AF82B88620E030E040E251E4E9
:10021000C701B6010E9416112B013C01D501C40192
:1002200084199509A609B709B7FF07C0B095A0952D
:10023000909581959F4FAF4FBF4F0297A105B10594
:1002400044F489819A8101969A83898373016201BA
:10025000DBCFA5019401C301B2010E94081187FD03
:10026000F0CF8D819E81AF81B8858C199D09AE0933
:10027000BF090196A11DB11D0397A105B10508F4A1
:1002800049C01E821D82A5019401C701B6010E94CA
:100290000D1118160CF040C0E981FA81E43DFE4FC3
:1002A000E4F44D815E81452BC1F420E030E040E86C
:1002B0005AE5C501B4010E9416114B015C0120E012
:1002C00030E040E85AE5C701B6010E9416116B0103
:1002D0007C0181E090E09E838D8320E030E040E26D
:1002E00051E4C701B6010E9412116B017C01E98142
:1002F000FA813197FA83E983D501C4018C199D09EC
:10030000AE09BF090196A11DB11D0397A105B10555
:1003100008F0B9CF46015701288D022E000C330B8F
:10032000398F288FC9010E94D0108A8F17FD03C012
:100330001E830D8304C046E050E05E834D835A8DDA
:10034000573641F4012B09F04CC281E090E09E83C6
:100350008D8347C24A8D4F8706C029813A8137FF76
:1003600052C256E65F878D819E8101969E838D8362
:100370009F859636B9F4E981FA81F7FF08C0C12C50
:10038000D12C90E8E92E9FE3F92E1A821982FA8D7A
:10039000F73641F02D813E8149815A81240F351F66
:1003A0003E832D831C2DDDA2EBA20F2D8B869C8618
:1003B000AD86BE861D8A1C8A8C899D89ED81FE8151
:1003C0008E179F07DCF5212F3DA14BA1502F6B8588
:1003D0007C858D859E850E9412110E94C7082B0185
:1003E0003C010E94FB106B8FA3019201612F7DA144
:1003F0008BA1902F0E9416112B853C854D855E8523
:100400000E94D8109B01AC0150582B873C874D8728
:100410005E8720E030E040E251E4612F7DA18BA1B6
:10042000902F0E941211162F7DA38BA3092F4C89A8
:100430005D894F5F5F4F5D8B4C8BBECF20E030E01E
:1004400040EA50E4612F7DA18BA1902F0E941611EC
:100450002B013C019B01AC016B857C858D859E85C4
:100460000E94081187FD0DC0A30192016B857C8558
:100470008D859E850E940811811106C0FB8DF0FDBF
:1004800003C0412C512C3201A5019401C301B201DA
:100490000E94D9104B015C0120E030E040E251E4C1
:1004A000C701B6010E9416116B877C8B182F092F8C
:1004B0009B01482F592FC501B4010E940D1187FDE2
:1004C00014C029813A812F5F3F4F3A8329833F85AA
:1004D000363679F44D815E814F5F5F4F5E834D8389
:1004E0005B855DA38C898EA30BC0CB86DC8A1E2D19
:1004F0000F2D9F85953639F0EB85EDA3FC89FEA382
:10050000E980FA8006C02B852DA33C893EA3E12C0F
:10051000F12C48885988C12CD12C1D8A1C8A1C8634
:100520001B8649855A85407155275CA34BA32B85B3
:100530003C854D815E812417350734F08C899D8977
:10054000892B09F494C09FC03201EE89FF89808510
:10055000918505974816590688F72DA13EA1412F90
:10056000502FC501B4010E9412110E94C7086B8F61
:100570007C8F8D8F9E8F0E94FB106A30710514F066
:1005800069E070E08BA19CA1892B69F4611571056C
:1005900051F49A8D973639F4F7FE05C03601EFEF26
:1005A0006E1A7E0A38C02C893D89232B99F4F7FEF8
:1005B00011C03FEF431A530AF101E60DF71D4EE259
:1005C00040838B819C8101979C838B83E1E0F0E0E9
:1005D000FD8BEC8BF101E40DF51D36016114710406
:1005E00031F020E3219331E0631A7108F7CFC6019F
:1005F000840D951D2B813C812C193D092C014FEF59
:10060000441A540AF101E80FF91F605D6083C901C3
:1006100001979C838B832B8D3C8D4D8D5E8D6DA1C1
:100620007EA1812F902F0E941611A50194010E9496
:10063000D8104B015C01B7FAB094B7F8B09420E041
:1006400030E040E251E46DA17EA1812F902F0E9405
:1006500012116DA37EA3182F092F91E0E91AF1085A
:10066000EB85FC853196FC87EB87630160CFF985CC
:10067000F4FF09C0F101E40DF51D8EE280839201C3
:100680002F5F3F4F2901A101440D551D5E834D830E
:10069000FA011082FF85F53609F061C0E9A1FAA1DF
:1006A000E20DF31D3197108229813A8137FF08C08E
:1006B0003195219531093A83298301E010E002C088
:1006C00000E010E0E9A1FAA13197E20DF31D22E06C
:1006D00030E08AE0E82EF12CCF018219930949819C
:1006E0005A81452B91F089819A81B7010E9411109E
:1006F000805D829369837A83215031094B815C81CB
:10070000415051095C834B83E7CF121613065CF30B
:10071000FC013197E20DF31D012B11F42BE201C016
:100720002DE220830297B101680F791F288D398D42
:10073000215431092A31310510F025E601C025E4A4
:10074000FB0120832B813C81225031093C832B8388
:100750004816590624F48D819E810E94C81039855F
:1007600031FF29C030FD27C04B815C81141615066E
:1007700014F5C1010E946B10820D931D9C0122197A
:10078000330948895989241735074CF0FC01208129
:10079000EB81FC81E80FF91F20830197EFCF4B819C
:1007A0005C8160E370E088899989820D931D0E94C5
:1007B000AE101B8A1A8AC1010E946B1009851A8526
:1007C0002A893B89AC01B1018F8D98A10E94F60D59
:1007D000A696E2E10C94B20F598553FFC4CC80E297
:1007E000B5CC89819A818C3F9F4F54F0E981FA8181
:1007F0002D813E81E217F3070CF4AFCD35E604C03E
:10080000F5E6FF87CFCD36E63F87CCCDAEE0B0E052
:10081000ECE0F4E00C947E0F4C016B011A8219821B
:100820008FEF9FEF9C838B831E821D8258874F839F
:100830003A872987A12CB12CD6016D907C90F301C9
:10084000EA0DFB1D808181110FC0D601ED93FC9351
:100850008081853209F0D3C13F01BFEF6B1A7B0A5B
:10086000F6017182608219C0853279F3B401082ED5
:10087000000C990B0E94670C4FEFA41AB40ADCCF4E
:100880008C32ACF08D32F9F489819A8181609A833F
:1008900089833196D601ED93FC93D601ED91FC91BD
:1008A00080818B3269F789819A818460F0CF8032B0
:1008B00021F489819A818860EACF833251F4898159
:1008C0009A818061E4CF803321F489819A818260AA
:1008D000DECFB701C6010E945E0E9E838D8397FF17
:1008E0000BC029813A81B1E02B273A832983919566
:1008F000819591099E838D8389819A8180FF03C0B0
:100900008D7F9A838983D601ED91FC911197808127
:100910008E3249F43196ED93FC93B701C6010E94E3
:100920005E0E9C838B83C6010E941E0F582ED6013B
:10093000ED91FC918081082E000C990B0E94D01043
:10094000893609F443C084F4833609F402C134F4CF
:10095000853209F427C18136E1F030C18436B1F126
:1009600088360CF4D9C02AC1803709F49AC03CF407
:100970008E3609F4BCC08F3609F461C01FC18537BB
:1009800009F440C0883709F476C0833709F016C1EE
:10099000F3C0652D70E0A701CE010B960E943E0FBB
:1009A000892B09F426C1D601ED91FC911197CF0155
:1009B00001968D939C932081AE01455F5F4FBE01F0
:1009C0006F5F7F4FC4010E94000010C1652D70E071
:1009D000970141E050E0CE010B960E94850A892BD9
:1009E00009F407C1F601808191810196918380838A
:1009F000AE01455F5F4FBE016F5F7F4FC4010E9434
:100A00003A09F4C0652D70E0970140E050E0CE0156
:100A10000B960E94850A892B09F4EBC0D6018D91B3
:100A20009C91119701968D939C93AE01455F5F4F0A
:100A3000BE016F5F7F4FC4010E94FC0CD7C0652DC3
:100A400070E0970140E050E0CE010B960E94850ACD
:100A5000892B09F4CEC0F6018081918101969183A2
:100A60008083AE01455F5F4FBE016F5F7F4FC40162
:100A70000E94B90BBBC0652D70E0970140E050E0CB
:100A8000CE010B960E94850A892B09F4B2C0D601CB
:100A9000ED91FC911197CF0101968D939C9320814C
:100AA0001CC0970140E050E060EF70E0CE010B9673
:100AB0000E94850A892B09F49CC0F60180819181EE
:100AC0000196918380838B859C85892B29F420E076
:100AD00030E048E951E084C028E7AE01455F5F4F50
:100AE000BE016F5F7F4FC4010E94FF067FC0A5015A
:100AF000400F511F652D70E09701CE010B960E94AB
:100B00000000892B09F475C0D6018D919C91119735
:100B100001968D939C9373C0652D70E0A701CE0163
:100B20000B960E943E0F892B09F463C0D601ED910C
:100B3000FC911197CF0101968D939C932081AE017A
:100B4000455F5F4FBE016F5F7F4FC4010E94700021
:100B50004DC0B0E85B124DC0F601808191810196D5
:100B600091838083D701ED91FC911197CF0102967B
:100B70008D939C93808120C0B0E85B123AC0F6014F
:100B800080819181019691838083D701ED91FC91C1
:100B90001197CF0102968D939C934081518120E063
:100BA00030E01EC0B0E85B1224C0F6012081318124
:100BB0002F5F3F4F318320838B870DC085E28B876A
:100BC000D6016D927C921A8219821E821D828FEF4D
:100BD0009FEF9C838B8321E030E0AE01455F5F4F48
:100BE000BE016F5F7F4FC4010E948C0E8A0D9B1D5A
:100BF00007C0F60180819181019691838083C501B0
:100C00002E96EFE00C94B50F4F925F926F927F9209
:100C10008F929F92AF92BF92CF92DF92EF92FF920C
:100C20000F931F93CF93DF93CDB7DEB72C970FB6FB
:100C3000F894DEBF0FBECDBF5298539A0E94791030
:100C40000E949C100E94FC0F10929E0110929F0126
:100C50001092A0011092A1018CE291E00E945C1020
:100C600001E010E00F2EFCE3AF2EF1E0BF2EF02DDF
:100C7000CE0101966C010F2EF1E44F2EF1E05F2EB4
:100C8000F02D7E0199E0E90EF11C0E94ED07962EF1
:100C9000872E782E692E562F472F862F982DA72D19
:100CA000B62D8093A2019093A301A093A401B093C9
:100CB000A501252F342F4A2F5B2F60919E01709143
:100CC0009F018091A0019091A1010E94D910609391
:100CD0009E0170939F018093A0019093A1016F9258
:100CE0007F928F929F92BF92AF92DF92CF920E949B
:100CF00039101F930F935F924F92FF92EF920E94D1
:100D0000391081E090E00E94120CC7010E945C1033
:100D100084E491E00E945C1080EC90E00E94120C50
:100D2000C6010E945C102FEF83E294EF21508040B7
:100D30009040E1F700C000000F5F1F4F0FB6F8941E
:100D4000DEBF0FBECDBF0630110509F09ECF20E0FB
:100D500030E040EA50E460919E0170919F018091E3
:100D6000A0019091A1010E941211262F372F462F2A
:100D7000572F682F792F40939E0150939F016093C6
:100D8000A0017093A1019F938F933F932F938CE3C6
:100D900091E09F938F9389E891E09F938F930E94B6
:100DA000391081E090E00E94120C82E591E00E94EF
:100DB0005C1080EC90E00E94120C89E891E00E94A7
:100DC0005C100FB6F894DEBF0FBECDBF80E090E0A0
:100DD0002C960FB6F894DEBF0FBECDBFDF91CF913A
:100DE0001F910F91FF90EF90DF90CF90BF90AF9049
:100DF0009F908F907F906F905F904F900895AFE09D
:100E0000B0E0E5E0F7E00C947B0F1C016B015A8326
:100E100049832B83FB0182819381848095800081AB
:100E20001181A680B78097FD02C00D7F02C081E0CE
:100E300090E0E981FA81408051806280738098015E
:100E4000207133273D832C83740104FF08C04114B3
:100E500051046104710419F032E0E31AF108F80159
:100E6000E870FF27FF83EE8303FF03C0F1E0EF1A72
:100E7000F108F6010084F185E02D3197FF87EE87B8
:100E8000EA0DFB1D10829C012E193F093987288726
:100E9000C801827099279B878A87EB818E2FEE0F7E
:100EA000990B9C01215431093D872C872E853F8564
:100EB0002230310530F48C819D81892B09F042C0AC
:100EC0005CC0411451046104710461F18E859F85F9
:100ED00001979F878E87C2018F7099278A3091056D
:100EE00014F4C09602C0895A9F4FEC85FD857A970D
:100EF00048F49C012062215631092A31310510F451
:100F00000E94B710EE85FF85EA0DFB1D8083F1E09E
:100F1000EF1AF10884E076946794579447948A9581
:100F2000D1F7C4CF888599858E0D9F1D1816190697
:100F30006CF21E141F040CF0BECFEA85FB85EF2B6C
:100F400029F6B9CFE981FA8180819181A281B381AB
:100F5000892B8A2B8B2B89F0EE85FF85EA0DFB1DF3
:100F600031972B8120838E859F8502979F878E875F
:100F7000FC01EA0DFB1D80E38083EE81FF81EF2BF6
:100F800059F02E853F85215031093F872E87F90181
:100F9000EA0DFB1D80E28083F601408551854150BA
:100FA00051092E853F85421B530BB9016A0D7B1DEC
:100FB0009401C1010E94F60D9C01F1018081918193
:100FC00090FF06C0F60182819381821793070CF48B
:100FD000C9012F96E2E10C94B20F8F929F92AF92CB
:100FE000BF92CF92DF92EF92FF920F931F93CF9316
:100FF000DF9381E090E00E94120C82E091E00E9479
:101000005C102FEF83E294EF215080409040E1F795
:1010100000C0000081E090E00E94120C80E191E0AD
:101020000E945C101092A6011092A7011092A801D4
:101030001092A9011092AA011092AB011092AC017A
:101040001092AD01C4E6D0E00E94970F6093A60114
:101050007093A7018093A8019093A9010091AA0120
:101060001091AB012091AC013091AD01DC01CB01BD
:10107000800F911FA21FB31F8093AA019093AB0111
:10108000A093AC01B093AD012197F1F6BC01CD0165
:1010900024E630E040E050E00E94E50F2093AA01F2
:1010A0003093AB014093AC015093AD0181E090E0EF
:1010B0000E94120C81E291E00E945C102FEF83E20B
:1010C00094EF215080409040E1F700C0000081E0A3
:1010D00090E00E94120C80E191E00E945C1010925E
:1010E000A6011092A7011092A8011092A901C4E6CE
:1010F000D0E0C12CD12C76010E94970F6093A601FD
:101100007093A7018093A8019093A9010091AA016F
:101110001091AB012091AC013091AD014801590112
:10112000861A970AA80AB90AC501B4010E94450D9A
:101130009B01AC01C701B6010E94D9106B017C0173
:101140002197D1F620E030E048EC52E40E941211E1
:101150006B017C016091B0017091B101072E000C10
:10116000880B990B0E94450D9B01AC01C701B6018C
:101170000E941211DF91CF911F910F91FF90EF907C
:10118000DF90CF90BF90AF909F908F9008958F92F7
:101190009F92AF92BF92CF92DF92EF92FF920F9306
:1011A0001F938B019C0157E136952795179507955D
:1011B0005A95D1F71127A8014F57510947315105C9
:1011C0000CF045C057FD2DC00FEF1FEF2FE730E0AB
:1011D00004C035952795179507954A95D2F748018C
:1011E000590186229722A822B92289288A288B2889
:1011F00071F197FF07C0DC01CB01800F911FA21F87
:10120000B31F02C0DC01CB010095109520953095ED
:1012100080239123A223B323482F392F2A2F5B2F1A
:101220001AC097FF0FC08B019C01000F111F221FD6
:10123000331F012B022B032B51F040E030E020E85C
:101240005FEB09C040E030E020E050E004C0462FF2
:10125000372F282F592F642F732F822F952F1F91EF
:101260000F91FF90EF90DF90CF90BF90AF909F9045
:101270008F900895A2E0B0E0E0E4F9E00C947B0FD9
:101280003C016B01FB0122813381A480B580808108
:1012900091819A83898386809780FA0120803180AA
:1012A00042805380B201A10157FE07C04427552751
:1012B000BA01421953096409750937FD03C08D7FCE
:1012C0009A838983950157FC05C0898182FD02C0FC
:1012D00083FF02C021503109CE0101967C010AE052
:1012E00010E0C6010E94540B57FC03C0298122FF65
:1012F0000AC00197F401E80FF91F57FC02C02BE266
:1013000009C02DE207C023FF06C00197F401E80FD2
:10131000F91F20E2208309811A81F6014085518559
:1013200041505109481B590BB401680F791F9501B1
:10133000C3010E94F60D9C01F3018081918190FF11
:1013400006C0F60182819381821793070CF4C901CC
:101350002296E2E10C94B20F10C00E94E61058F001
:101360000E94DF1040F029F45F3F29F00C94021135
:1013700051110C94EE100C941A110E94DA0E68F3BD
:101380009923B1F3552391F3951B550BBB27AA273E
:1013900062177307840738F09F5F5F4F220F331F78
:1013A000441FAA1FA9F335D00E2E3AF0E0E832D040
:1013B00091505040E695001CCAF72BD0FE2F29D043
:1013C000660F771F881FBB1F261737074807AB0715
:1013D000B0E809F0BB0B802DBF01FF2793585F4F8A
:1013E0003AF09E3F510578F00C9402110C94EE10E7
:1013F0005F3FE4F3983ED4F3869577956795B7956C
:10140000F7959F5FC9F7880F911D9695879597F976
:101410000895E1E0660F771F881FBB1F62177307EF
:101420008407BA0720F0621B730B840BBA0BEE1F04
:1014300088F7E09508950FC00E94DF1038F00E94F1
:10144000E61020F0952311F00C9402110C941A115F
:1014500011240C94EE100E94DA0E70F3959FC1F3E4
:10146000950F50E0551F629FF001729FBB27F00D52
:10147000B11D639FAA27F00DB11DAA1F649F6627A7
:10148000B00DA11D661F829F2227B00DA11D621FF6
:10149000739FB00DA11D621F839FA00D611D221FB0
:1014A000749F3327A00D611D231F849F600D211D94
:1014B000822F762F6A2F11249F5750409AF0F1F017
:1014C00088234AF0EE0FFF1FBB1F661F771F881F80
:1014D00091505040A9F79E3F510580F00C940211A5
:1014E0000C94EE105F3FE4F3983ED4F38695779525
:1014F0006795B795F795E7959F5FC1F7FE2B880F26
:10150000911D9695879597F90895CF93DF93DC0108
:10151000F90168387105F1F05CF46138710561F129
:1015200064387105A1F16038710509F051C02FC010
:10153000603C710509F441C0603F7105F1F1603A0A
:10154000710509F045C0C081D181CE010296918319
:10155000808325C0C081D181CE0102969183808392
:10156000452B39F04881042E000C550B660B770B88
:101570001CC0488150E029C0C081D181CE010496B1
:1015800091838083488159816A817B810EC0C081AB
:10159000D181CE01029691838083452BA1F04881B1
:1015A0005981052E000C660B770B4D935D936D935F
:1015B0007C93139781E090E00DC0C081D181CE0172
:1015C0000296918380834881598160E070E0EDCF7D
:1015D00080E090E0DF91CF91089511C00E94DF106C
:1015E00038F00E94E61020F039F49F3F19F426F4F9
:1015F0000C941A110EF4E095E7FB0C940211E92FFC
:101600000E94DA0E58F3BA1762077307840795072A
:1016100020F079F4A6F50C94ED100EF4E0950B2E65
:10162000BA2FA02D0B01B90190010C01CA01A00134
:101630001124FF27591B99F0593F50F4503E68F18F
:101640001A16F040A22F232F342F4427585FF3CFD0
:10165000469537952795A795F0405395C9F77EF4A1
:101660001F16BA0B620B730B840BBAF09150A1F0EA
:10167000FF0FBB1F661F771F881FC2F70EC0BA0F70
:10168000621F731F841F48F4879577956795B795F8
:10169000F7959E3F08F0B0CF9395880F08F09927F3
:1016A000EE0F979587950895A0E0B0E0EAE5FBE09E
:1016B0000C947D0FDC0128011696AD90BC90179715
:1016C000F701808191811296ED91FC911397189604
:1016D000CD91DC9119972197F7FF02C0E1E0F0E08E
:1016E000CA0DDB1D18826901A1E0B0E08F01021B69
:1016F000130B4C01F2E08F229924052C000C660894
:101700007708CE018A199B09CA15DB0519F1411525
:1017100051056105710589F0CB01BA01A301920160
:101720000E94FC0ECA01A62FB72F605D6A9341E0AC
:10173000C41AD108A901BC01E4CF98012C0D3D1DAC
:10174000121613064CF31C141D0434F48114910476
:1017500019F702C080E090E0AB2B31F4F701208153
:1017600031812F7E31832083CDB7DEB7E0E10C9449
:10177000B40FA2E0B0E0EFEBFBE00C947F0F4C0164
:101780006B01FB01228133816480758080819181AE
:101790009A838983A680B78037FD03C08D7F9A83A3
:1017A0008983FA014081518162817381CE01019662
:1017B0007C0108E010E09301C6010E94540B2981CE
:1017C00024FF06C00197F501E80FF91F20E32083ED
:1017D000298123FF06C00197F501E80FF91F20E2D8
:1017E000208309811A81F6014085518541505109B4
:1017F000481B590BB501680F791F9301C4010E9462
:10180000F60D9C01F4018081918190FF06C0F601E4
:1018100082819381821793070CF4C9012296EEE02E
:101820000C94B60FDF92EF92FF920F931F93CF931A
:10183000DF93EC018C01007F112708600E94A51046
:101840000F2EFEEAEF2EF1E0FF2EF02DF701808142
:10185000880F0E948610802F84600E9486108FE37C
:101860009FE10197F1F700C00000802F8B7F0E945D
:1018700086100CEB10E00F2EF4E9DF2EF02DF801AE
:10188000D082C295D295D07FDC27C07FDC27C8608C
:101890000E94A510F7018081880F0E9486108C2F6E
:1018A00084600E9486108FE39FE10197F1F700C0EA
:1018B00000008C2F8B7F0E948610F801D082DF9170
:1018C000CF911F910F91FF90EF90DF9008950F93AC
:1018D0001F93CF93DF93DB01109719F48FEF9FEFE6
:1018E0003DC02D913C91119730FF25C016964D912A
:1018F0005C91179714962D913C91159742175307B9
:1019000078F41296ED91FC911397808312962D91A5
:101910003C9113972F5F3F4F13963C932E93129752
:1019200016962D913C9117972F5F3F4F17963C933A
:101930002E93169713C01C96ED91FC911D9730972E
:1019400069F2EB01092F182F0995892B39F68E8141
:101950009F8101969F838E83812F902FDF91CF915E
:101960001F910F910895EF92FF920F931F93CF93C2
:10197000DF93C82FD82FD07F0E94A5100F2EFEEA2C
:10198000EF2EF1E0FF2EF02DF7018081880F0E94ED
:1019900086108D2F8D600E9486108FE39FE1019746
:1019A000F1F700C000008D2F89600E9486100CEBBB
:1019B00010E0D4E9F801D083C295C07F0E94A51041
:1019C000F7018081880F0E9486108C2F8D600E9405
:1019D00086108FE39FE10197F1F700C000008C2F84
:1019E00089600E948610F801D083DF91CF911F910A
:1019F0000F91FF90EF900895A2E0B0E0E2E0FDE0EB
:101A00000C947F0F5C016B01FB0122813381848088
:101A10009580808191819A8389836680778037FD64
:101A200003C08D7F9A838983FA014081518162814D
:101A30007381CE0101967C010AE010E09401C60199
:101A40000E94540B09811A81F6014085518541504D
:101A50005109481B590BB301680F791F9401C50147
:101A60000E94F60D9C01F5018081918190FF06C0D6
:101A7000F60182819381821793070CF4C9012296A3
:101A8000EEE00C94B60FE89409C097FB3EF49095F5
:101A90008095709561957F4F8F4F9F4F9923A9F047
:101AA000F92F96E9BB279395F695879577956795D6
:101AB000B795F111F8CFFAF4BB0F11F460FF1BC01A
:101AC0006F5F7F4F8F4F9F4F16C0882311F096E9AD
:101AD00011C0772321F09EE8872F762F05C066235B
:101AE00071F096E8862F70E060E02AF09A95660F14
:101AF000771F881FDAF7880F9695879597F90895CD
:101B0000A2E8B0E0E6E8FDE00C94810F5C014A0138
:101B1000CF57DF4F79836883C158D040C12CD12C77
:101B2000CF57DF4FE881F981C158D04080818823A9
:101B3000E9F07401860120E830E0AE014F5F5F4FAD
:101B4000BE016F577F4FC5010E9406048C0D9D1D7D
:101B50008C159D054CF48FE490E0909301018093E7
:101B600000018FEF9FEF03C06C01DACFC601CE57A3
:101B7000DF4FECE00C94B80FA0E1B0E0E2ECFDE048
:101B80000C94870FFB01BA01AE014F5F5F4F7A01E2
:101B900040E1D7011D924A95E9F742E051E05A83AE
:101BA00049839C838B83F7FF09C08FE490E0909377
:101BB0000101809300018FEF9FEF14C0A9018C01F8
:101BC0003197FE83ED83C7010E94CD0F4F81588569
:101BD0002D813E814217530708F49A01F801E20F64
:101BE000F31F10826096E6E00C94BE0FA0E0B0E018
:101BF000ECEFFDE00C94810F6C015B017A01E901CF
:101C0000480181E08822992400FD03C04217530750
:101C100050F0A701B501C6010E945E0FEC16FD064B
:101C200010F0C70117C08E010E191F09011511050B
:101C300041F0B60180E290E00E94670C015011096A
:101C4000F5CF8114910429F4A701B501C6010E94C2
:101C50005E0FCE01CDB7DEB7ECE00C94B80F0E945A
:101C6000E20E88F09F5798F0B92F9927B751B0F03E
:101C7000E1F0660F771F881F991F1AF0BA95C9F710
:101C800014C0B13091F00E94ED10B1E008950C94B1
:101C9000ED10672F782F8827B85F39F0B93FCCF364
:101CA000869577956795B395D9F73EF4909580958D
:101CB000709561957F4F8F4F9F4F0895DC01ED9197
:101CC000FC91119780818A3221F080E090E03AE027
:101CD0000EC03196ED93FC93DB01ED91FC911197D1
:101CE000CF0102968D939C93808191810895ED910F
:101CF000FC911197208120532A3068F4389FA0016D
:101D0000399F500D1124CA01820F911D31961196F1
:101D1000FC93EE93ECCF0895A0E0B0E0E2E9FEE0A2
:101D20000C94830F7C01FB01EA01C901A280B380FE
:101D3000C480D58000811181209711F4C1E9D1E0E0
:101D4000009719F4CE010E946B10B7FC04C0A816CE
:101D5000B90608F4C5019601AC01BE01C7010E9495
:101D6000F60DCDB7DEB7EAE00C94BA0F990F000874
:101D7000550FAA0BE0E8FEEF16161706E807F9075D
:101D8000C0F012161306E407F50798F0621B730BF8
:101D9000840B950B39F40A2661F0232B242B252B79
:101DA00021F408950A2609F4A140A6958FEF811D1C
:101DB000811D089557FD9058440F551F59F05F3FFE
:101DC00071F04795880F97FB991F61F09F3F79F05D
:101DD00087950895121613061406551FF2CF4695DF
:101DE000F1DF08C0161617061806991FF1CF869561
:101DF0007105610508940895A1E21A2EAA1BBB1B68
:101E0000FD010DC0AA1FBB1FEE1FFF1FA217B307C6
:101E1000E407F50720F0A21BB30BE40BF50B661FDC
:101E2000771F881F991F1A9469F7609570958095A0
:101E300090959B01AC01BD01CF010895CF93DF9335
:101E4000EC0190E0E92FF0E0EE0FFF1FED59FE4F9F
:101E50008081811102C081810EC0A881B9812C913D
:101E6000821305C091811196B983A88301C09F5F39
:101E70009B3040F3892FDF91CF910895FA016038AC
:101E80007105CCF0623871051CF06338710599F466
:101E9000A081B1819D012C5F3F4F318320834D9103
:101EA0005D916D917C91FC014083518362837383CA
:101EB00081E090E0089580E090E00895A0E0B0E037
:101EC000E4E6FFE00C94850F6C01EB018A017B01D5
:101ED000E40EF51ECE15DF0541F08991B601082EFE
:101EE000000C990B0E94670CF5CFC801CDB7DEB787
:101EF000E8E00C94BC0F2F923F924F925F926F924A
:101F00007F928F929F92AF92BF92CF92DF92EF9289
:101F1000FF920F931F93CF93DF93CDB7DEB7CA1B0A
:101F2000DB0B0FB6F894DEBF0FBECDBF09945A9AF3
:101F30005B984A99FECF28E180E090E0DC015B9A53
:101F4000880F991FAA1FBB1F5B984A9B03C001966D
:101F5000A11DB11D215099F75B9A5B98BC01CD0181
:101F6000805808952A88398848885F846E847D84E3
:101F70008C849B84AA84B984C884DF80EE80FD8031
:101F80000C811B81AA81B981CE0FD11D0FB6F894A7
:101F9000DEBF0FBECDBFED010895A2E0B0E0E3EDDE
:101FA000FFE00C94890F8C015A834983AE014F5F87
:101FB0005F4F0E94800DF801208124FF02C08FEF47
:101FC0009FEF2296E4E00C94C00F052E97FB1EF4C1
:101FD00000940E94C01057FD07D00E94FC0E07FC21
:101FE00003D04EF40C94C010509540953095219537
:101FF0003F4F4F4F5F4F089582E090E00E94120CD8
:1020000088E290E00E94120C8CE090E00E94120C9A
:1020100081E090E00E94120C80E890E00E94120C97
:10202000089597FB072E16F4009407D077FD09D08A
:102030000E94251007FC05D03EF4909581959F4F96
:102040000895709561957F4F0895AA1BBB1B51E1C0
:1020500007C0AA1FBB1FA617B70710F0A61BB70B18
:10206000881F991F5A95A9F780959095BC01CD01BD
:102070000895A0E0B0E0EFE3F0E10C948B0FAE0127
:10208000475F5F4F6F8178858D819E810E94F4103C
:10209000E2E00C94C20F092E0394000C11F4882383
:1020A00052F0BB0F40F4BF2B11F460FF04C06F5F10
:1020B0007F4F8F4F9F4F0895CF93DF93EC0188811F
:1020C000882331F021960E94B30C89918111FBCFB6
:1020D000DF91CF910895FC01AF014F5F5F4F2081E9
:1020E000222311F0FA01F8CF9F01281B390BC901F7
:1020F00008955298539A5B982FEF81EE94E0215007
:1021000080409040E1F700C0000008958093BB003C
:1021100084E88093BC00ECEBF0E080818823ECF74E
:102120000895EC010E9422110E942111CE010E940B
:102130002311CE010E941F111092B90084E08093F8
:10214000BC0088E48093B800089584EA8093BC00C2
:10215000ECEBF0E080818823ECF70895FC01480F58
:10216000591FE417F50711F06193FBCF08959C0107
:10217000215631092A31310510F48F7599270895B8
:1021800090958095709561957F4F8F4F9F4F0895E3
:10219000FC01DB012D91BD0121932111FACF08959E
:1021A0009C01215431092A31310508F480620895D7
:1021B0005058BB27AA270E94ED0A0C944B1000240C
:1021C0000A941616170618060906089500240A949C
:1021D00012161306140605060895E894BB27662711
:1021E0007727CB0197F908959A01AB016FEF7FE74D
:1021F0000E94BC0D08950E942F0E6894B1110C949A
:10220000EE10089597F99F6780E870E060E0089508
:102210000E94B60E08F481E008950E94B60E08F4FC
:102220008FEF08950E94AC090C944B100E941B0A7A
:102230000C944B109FEF80EC08950C9400000E94CA
:102240006E0008950895089552656D6F7665207744
:1022500065696768740020202020202D2D2D2D2DEC
:102260002D202020202000506C61636520323939F8
:102270006700202043414C4942524154494E472077
:102280002000252E3366002564002D5363616C65A4
:1022900020466163746F7200417667205363616CFE
:1022A0006520466163746F720068076C094C836A2D
:1022B0009074A07AC00080688800846C8200814994
:1022C0004E4600696E66004E414E006E616E0028FB
:1022D0006E756C6C2900286E696C290027002B0133
:00000001FF
