:100000000C943A000C94C6120C94C6120C94C612AE
:100010000C94C6120C94C6120C94C6120C94C61200
:100020000C94C6120C94C6120C94C6120C94C612F0
:100030000C94C6120C94C6120C94C6120C94C612E0
:100040000C94C6120C94C6120C94C6120C94C612D0
:100050000C94C6120C94C6120C94C6120C94C612C0
:100060000C94C6120C94C6120100011A80011A01E8
:100070001E00259A11241FBECFEFD8E0DEBFCDBFF2
:10008000E8E6F0E040E017C0B591A59135912591E3
:10009000059107FD0CC095918591EF01F92FE82F8F
:1000A00005900D92A217B307D9F7FE0104C01D9267
:1000B000A217B307E1F7E437F40731F70E94C60649
:0800C0000C944912F894FFCFE3
:1000C80052656D6F766520776569676874002020D2
:1000D8002020202D2D2D2D2D2D20202020200050BA
:1000E8006C616365203136376700202043414C49F5
:1000F80042524154494E47202000252E33660025A0
:1001080064002D5363616C6520466163746F7200EF
:10011800417667205363616C6520466163746F7232
:0101280000D6
:1001290068076C094C836A9074A07AC0008068885B
:0601390000846C820081CD
:10013F00494E4600696E66004E414E006E616E007C
:07014F00286E756C6C29009D
:06015600286E696C29000F
:10015C00A6E2B0E0E4EBF0E00C94041198A38F8FCE
:10016C007F8B6E8B288FFB010190F081E02DFA873D
:10017C00E987FB0102811381248135813B8B2A8B1A
:10018C00808591859AA389A30680F781E02DFA8357
:10019C00E983FA0180809180A280B38020E030E076
:1001AC00A901C501B4010E94B11287FF06C0B7FABC
:1001BC00B094B7F8B0948DE204C0F985F2FF69C32E
:1001CC008BE2E981FA8180832A893B8921503109AC
:1001DC003C832B8341E050E0598B488B06C08A89C5
:1001EC009B899C838B83198A188AD501C401BF779C
:1001FC000097E0E8AE07EFE7BE07F1F4F88D2F2F7C
:10020C00FF0F330B2154310989819A81488959890F
:10021C00840F951F2A31310520F44FE351E060E043
:10022C0003C043E451E060E00E94171289819A8177
:10023C003C01E0E88E2E1AC30197A048BF47F0F0AE
:10024C00488D242F440F330B2154310989819A8115
:10025C00E889F9898E0F9F1F2A31310520F447E474
:10026C0051E060E003C04BE451E060E00E941712E3
:10027C0029813A81390140E8842EF8C220E030E02F
:10028C00A901C501B4010E94B112C12CD12C20E8E6
:10029C00E22E2FE3F22E212C312C882309F487C077
:1002AC008D829E82AF82B88620E030E040E251E43D
:1002BC00C701B6010E94BF122B013C01D501C4013C
:1002CC0084199509A609B709B7FF07C0B095A09581
:1002DC00909581959F4FAF4FBF4F0297A105B105E8
:1002EC0034F45FEF251A350A73016201DDCFA501E5
:1002FC009401C301B2010E94B11287FDF2CF8D812E
:10030C009E81AF81B8858C199D09AE09BF090196F4
:10031C00A11DB11D0397A105B10508F446C01E82AD
:10032C001D82A5019401C701B6010E94B6121816D0
:10033C00F4F584ED28168EEF3806E4F4ED81FE8199
:10034C00EF2BC1F420E030E040E85AE5C501B401E0
:10035C000E94BF124B015C0120E030E040E85AE5FE
:10036C00C701B6010E94BF126B017C0121E030E095
:10037C003E832D8320E030E040E251E4C701B6011A
:10038C000E94BB126B017C0131E0231A3108D501AC
:10039C00C4018C199D09AE09BF090196A11DB11D9F
:1003AC000397A105B10508F0BCCF46015701488D54
:1003BC00042E000C550B598F488FCA010E948012D5
:1003CC008A8F17FD03C01E830D8304C086E090E066
:1003DC009E838D839A8D973639F4012B41F4E1E09D
:1003EC00F0E0FE83ED8303C04A8D4F8710C02CEFE5
:1003FC0022162FEF32060CF451C22D813E812216AB
:10040C0033060CF04BC237FE4CC256E65F878D812B
:10041C009E8101969E838D839F85963699F437FE37
:10042C0008C0C12CD12C90E8E92E9FE3F92E212C89
:10043C00312CEA8DE73631F02D813E81220D331DB2
:10044C003E832D831C2DDDA2EBA20F2D8B869C866B
:10045C00AD86BE861D8A1C8A8C899D89ED81FE81A4
:10046C008E179F07DCF5212F3DA14BA1502F6B85DB
:10047C007C858D859E850E94BB120E941C0A2B01D7
:10048C003C010E94A4126B8FA3019201612F7DA1EC
:10049C008BA1902F0E94BF122B853C854D855E85CC
:1004AC000E9488129B01AC0150582B873C874D87CA
:1004BC005E8720E030E040E251E4612F7DA18BA10A
:1004CC00902F0E94BB12162F7DA38BA3092F4C8952
:1004DC005D894F5F5F4F5D8B4C8BBECF20E030E072
:1004EC0040EA50E4612F7DA18BA1902F0E94BF1296
:1004FC002B013C019B01AC016B857C858D859E8518
:10050C000E94B11287FD0DC0A30192016B857C8501
:10051C008D859E850E94B112811106C0FB8DF0FD68
:10052C0003C0412C512C3201A5019401C301B2012D
:10053C000E9489124B015C0120E030E040E251E462
:10054C00C701B6010E94BF126B877C8B182F092F35
:10055C009B01482F592FC501B4010E94B61287FD8B
:10056C0011C02FEF221A320A3F85363679F44D81AD
:10057C005E814F5F5F4F5E834D835B855DA38C898E
:10058C008EA30BC0CB86DC8A1E2D0F2D9F85953636
:10059C0031F0EB85EDA3FC89FEA3710106C02B8520
:1005AC002DA33C893EA3E12CF12C48885988C12C01
:1005BC00D12C1D8A1C8A1C861B8649855A85407144
:1005CC0055275CA34BA32B853C854D815E8124175D
:1005DC00350734F08C899D89892B09F497C0A3C009
:1005EC003201EE89FF898085918505974816590659
:1005FC0088F72DA13EA1412F502FC501B4010E94B7
:10060C00BB120E941C0A6B8F7C8F8D8F9E8F0E9459
:10061C00A4126A30710514F069E070E08BA19CA102
:10062C00892B69F46115710551F49A8D973639F45B
:10063C00F7FE05C03601EFEF6E1A7E0A3BC02C891F
:10064C003D89232BA1F4F7FE12C03FEF431A530A46
:10065C00E981FA81E60DF71D4EE240838B819C8186
:10066C0001979C838B83E1E0F0E0FD8BEC8BE981BF
:10067C00FA81E40DF51D36016114710431F020E3AB
:10068C00219331E0631A7108F7CFC601840D951DD3
:10069C002B813C812C193D092C014FEF441A540A33
:1006AC00E981FA81E80FF91F605D6083C901019748
:1006BC009C838B832B8D3C8D4D8D5E8D6DA17EA18E
:1006CC00812F902F0E94BF12A50194010E948812C5
:1006DC004B015C01B7FAB094B7F8B09420E030E06D
:1006EC0040E251E46DA17EA1812F902F0E94BB129C
:1006FC006DA37EA3182F092F91E0E91AF108EB8561
:10070C00FC853196FC87EB8763015DCFF985F4FF9F
:10071C000AC0E981FA81E40DF51D8EE28083920115
:10072C002F5F3F4F290149815A81440D551D5E832E
:10073C004D83FA011082FF85F53609F061C0E9811D
:10074C00FA8129A13AA1E20FF31F3197108237FEEB
:10075C0006C031942194310801E010E002C000E0A1
:10076C0010E0E9A1FAA1319749815A81E40FF51FF4
:10077C0022E030E08AE0E82EF12CCF0149815A8149
:10078C00841B950B2114310479F0C101B7010E942F
:10079C00CB11805D82931B01215031098B819C818F
:1007AC0001979C838B83E9CF1216130674F3FC011B
:1007BC003197E40FF51F012B11F42BE201C02DE250
:1007CC0020830297E981FA81E80FF91F288D398D72
:1007DC00215431092A31310510F025E601C025E4F8
:1007EC0020832B813C81225031093C832B8348167A
:1007FC00590634F4AF0160E88D819E810E94171276
:10080C0049815A813A0180E8882E998591FF2EC042
:10081C0090FD2CC0EB81FC811E161F063CF5882D2B
:10082C00B3010E94A01129813A81820F931F9C0170
:10083C0049815A81241B350BE889F9892E173F070A
:10084C004CF0FC012081EB81FC81E80FF91F208327
:10085C000197EDCF4B815C8160E370E089819A81D7
:10086C008E0F9F1F0E9466121B8A1A8A882DB30155
:10087C000E94A011E984FA840A891B899C01682DC5
:10088C00A3018F8D98A10E943D0EA696E2E10C94D7
:10089C005611598553FFA3CC80E293CC35E63F87A4
:0808AC00D1CD46E64F87CECD09
:1008B4002F923F924F926F927F928F929F92AF921C
:1008C400BF92CF92DF92EF92FF920F931F93CF9339
:1008D400DF93CDB7DEB72E970FB6F894DEBF0FBE09
:1008E400CDBF4C016B0138011A8219828FEF9FEF43
:1008F4009C838B831E821D8258874F833A87298766
:10090400A12CB12CD6012D913D914C912A0D3B1D6A
:10091400411DB7FC4A95F901849147FD80818111FD
:1009240016C0F601208331834283F901849147FD87
:100934008081853209F00FC21901442EFFEF2F1A6E
:100944003F0A4F0AD6012D923D924C921BC085322C
:1009540041F3B401082E000C990B0E94F10D4FEFE6
:10096400A41AB40ACFCF2C32DCF02D3229F5298118
:100974003A8121603A8329830196A11DF60180837F
:100984009183A283F60180819181A281FC0124914B
:10099400A7FD20812B3239F729813A812460EACFDF
:1009A400203221F429813A812860E4CF233251F4A2
:1009B40029813A812061DECF203321F429813A81D3
:1009C4002260D8CFB701C6010E94DD0F9E838D83BC
:1009D40097FF0BC029813A81F1E02F273A832983BD
:1009E4009195819591099E838D8389819A8180FF58
:1009F40003C08D7F9A838983F60180819181A281CE
:100A0400FC012491A7FD20812E3261F40196A11DE1
:100A1400F60180839183A283B701C6010E94DD0F92
:100A24009C838B83C6010E94A20D182FD6012C91A2
:100A340011968C91119712969C91E22FF82F849124
:100A440097FD8081082E000C990B0E948012893634
:100A540009F44AC084F4833609F419C134F48532A4
:100A640009F445C18136E1F050C18436E9F1883694
:100A74000CF4E9C04AC1803709F4B0C03CF48E36A6
:100A840009F4D6C08F3609F46DC03FC1853709F427
:100A94004AC0883709F485C0833709F036C10DC1CF
:100AA400612F70E0A701CE010B960E94E410892B00
:100AB40009F448C1F60180819181A2819C014A2FE9
:100AC4002F5F3F4F4F4F208331834283FC0124919A
:100AD400A7FD2081AE01455F5F4FBE016F5F7F4F71
:100AE400C4010E9400002BC1612F70E0970141E016
:100AF40050E0CE010B960E94FE0A892B09F422C114
:100B0400F60180819181A2810196A11D8083918348
:100B1400A283AE01455F5F4FBE016F5F7F4FC4018B
:100B24000E94A9090CC1612F70E0970140E050E0D8
:100B3400CE010B960E94FE0A892B09F403C1F6012B
:100B440080819181A2810196A11D80839183A283DA
:100B5400AE01455F5F4FBE016F5F7F4FC4010E94CE
:100B64001B0FEDC0612F70E0970140E050E0CE0113
:100B74000B960E94FE0A892B09F4E4C0F6018081D9
:100B84009181A2810196A11D80839183A283AE01EC
:100B9400455F5F4FBE016F5F7F4FC4010E94A10C90
:100BA400CEC0612F70E0970140E050E0CE010B967B
:100BB4000E94FE0A892B09F4C5C0F6018081918147
:100BC400A2819C014A2F2F5F3F4F4F4F20833183D7
:100BD4004283FC012491A7FD208120C0970140E0BD
:100BE40050E060EF70E0CE010B960E94FE0A892B64
:100BF40009F4A8C0F60180819181A2810196A11D0A
:100C040080839183A2838B859C85892B31F400E0BA
:100C140010E026E531E040E08CC028E7AE01455FF6
:100C24005F4FBE016F5F7F4FC4010E94DE0787C024
:100C3400A501460D571D612F70E09701CE010B965B
:100C44000E9400007FC0612F70E0A701CE010B96C7
:100C54000E94E410892B09F475C0F601808191810A
:100C6400A2819C014A2F2F5F3F4F4F4F2083318336
:100C74004283FC012491A7FD2081AE01455F5F4FB3
:100C8400BE016F5F7F4FC4010E94AE0058C0103890
:100C940009F058C0F60180819181A2810196A11DBD
:100CA40080839183A283D701ED91FC911197CF01A9
:100CB40002968D939C93808126C0103809F042C01F
:100CC400F60180819181A2810196A11D8083918387
:100CD400A283D701ED91FC911197CF0103968D93D7
:100CE4009C9320813181428100E010E022C01038C1
:100CF40049F5F6012081318142812F5F3F4F4F4FEB
:100D04002083318342838B870EC085E28B87F60173
:100D14002082318242821A8219821E821D828FEFC2
:100D24009FEF9C838B839E01255F3F4F40E801E04A
:100D340010E0BE016F5F7F4FC4010E94A00F8A0DB7
:100D44009B1D0AC0F60180819181A2810196A11D9B
:100D540080839183A283C5012E960FB6F894DEBFDB
:100D64000FBECDBFDF91CF911F910F91FF90EF90F8
:100D7400DF90CF90BF90AF909F908F907F906F90B7
:080D84004F903F902F9008955D
:100D8C002F923F924F925F926F927F928F929F928F
:100D9C00AF92BF92CF92DF92EF92FF920F931F937D
:100DAC00CF93DF93CDB7DEB762970FB6F894DEBF63
:100DBC000FBECDBF5298539A0E9425120E94541216
:100DCC000E94B61110920A0110920B0110920C01A4
:100DDC0010920D0162EF70E080E00E943B1101E087
:100DEC0010E00F2EF2E0AF2EF1E0BF2EF0E0CF2E90
:100DFC00F02DCE0101961C010F2EF7E06F2EF1E0C5
:100E0C007F2EF0E08F2EF02D2E0199E0490E511C13
:100E1C00C201A0E88D879E87AF87C101A0E8888BAF
:100E2C00998BAA8B0E94CB08F62EE72ED82E992EE2
:100E3C00562F472F862F9E2DAD2DB92D80930E0149
:100E4C0090930F01A0931001B0931101252F342F13
:100E5C004A2F5B2F60910A0170910B0180910C015C
:100E6C0090910D010E94891260930A0170930B01FD
:100E7C0080930C0190930D019F92DF92EF92FF9261
:100E8C00CF92BF92AF923F922F920E94F3111F9379
:100E9C000F938F927F926F925F924F920E94F311F9
:100EAC0081E090E00E94FB0C6D857E858F850E9411
:100EBC003B116AE071E080E00E943B1180EC90E015
:100ECC000E94FB0C688979898A890E943B119FEFEB
:100EDC00A3E224EF9150A0402040E1F700C00000B5
:100EEC000F5F1F4F0FB6F894DEBF0FBECDBF06309D
:100EFC00110509F097CF20E030E040EA50E4609112
:100F0C000A0170910B0180910C0190910D010E94CE
:100F1C00BB12262F372F462F572F682F792F409330
:100F2C000A0150930B0160930C0170930D019F9378
:100F3C008F933F932F9382E091E0A0E0AF939F9328
:100F4C008F9302E011E01F930F930E94F31181E045
:100F5C0090E00E94FB0C68E171E080E00E943B1184
:100F6C0080EC90E00E94FB0CB80180E80E943B11E1
:100F7C000FB6F894DEBF0FBECDBF80E090E0629656
:100F8C000FB6F894DEBF0FBECDBFDF91CF911F918E
:100F9C000F91FF90EF90DF90CF90BF90AF909F900C
:100FAC008F907F906F905F904F903F902F9008950F
:100FBC00AFE0B0E0E4EEF7E00C9404111C016B011F
:100FCC005A8349832B83FB01828193818480958092
:100FDC00E080F180A680B78097FD03C0E894E1F82B
:100FEC0002C081E090E0E981FA814080518062800A
:100FFC0073809701207133273D832C838401E4FE99
:10100C0007C0411451046104710411F0025011091C
:10101C00F701E870FF27FF83EE83E3FE02C0015067
:10102C001109F6010084F185E02D3197FF87EE87D9
:10103C00EA0DFB1D10829C01201B310B3987288780
:10104C00C701827099279B878A87EB818E2FEE0FC1
:10105C00990B9C01215431093D872C872E853F85A6
:10106C002230310530F48C819D81892B09F041C0EF
:10107C005BC0411451046104710459F18E859F8544
:10108C0001979F878E87C2018F7099278A309105AF
:10109C0014F4C09602C0895A9F4FEC85FD857A974F
:1010AC0048F49C012062215631092A31310510F493
:1010BC000E946F12EE85FF85EA0DFB1D80830150A7
:1010CC00110984E076946794579447948A95D1F7E4
:1010DC00C5CF88859985800F911F1816190674F253
:1010EC00101611060CF0BFCFEA85FB85EF2B31F6FD
:1010FC00BACFE981FA8180819181A281B381892B58
:10110C008A2B8B2B89F0EE85FF85EA0DFB1D319721
:10111C002B8120838E859F8502979F878E87FC016C
:10112C00EA0DFB1D80E38083EE81FF81EF2B59F0EC
:10113C002E853F85215031093F872E87F901EA0D15
:10114C00FB1D80E28083F601208531852150310919
:10115C008E859F85281B390B8A0D9B1DAC0160E881
:10116C008401C1010E943D0E9C01F101808191819D
:10117C0090FF06C0F60182819381821793070CF4CD
:0A118C00C9012F96E2E10C94561100
:101196008F929F92AF92BF92CF92DF92EF92FF9281
:1011A6000F931F93CF93DF9381E090E00E94FB0C97
:1011B60068EC70E080E00E943B112FEF83E294EF31
:1011C600215080409040E1F700C0000081E090E0AF
:1011D6000E94FB0C66ED70E080E00E943B111092CD
:1011E600120110921301109214011092150110921F
:1011F6001601109217011092180110921901C4E6F7
:10120600D0E00E9420116093120170931301809325
:101216001401909315010091160110911701209168
:10122600180130911901DC01CB01800F911FA21F1B
:10123600B31F8093160190931701A0931801B093E2
:1012460019012197F1F6BC01CD0124E630E040E01A
:1012560050E00E94891120931601309317014093A4
:1012660018015093190181E090E00E94FB0C67EE93
:1012760070E080E00E943B112FEF83E294EF215053
:1012860080409040E1F700C0000081E090E00E94BD
:10129600FB0C66ED70E080E00E943B11109212019B
:1012A600109213011092140110921501C4E6D0E0B9
:1012B600C12CD12C76010E942011609312017093EB
:1012C600130180931401909315010091160110915A
:1012D6001701209118013091190148015901861A08
:1012E600970AA80AB90AC501B4010E94650F9B01B5
:1012F600AC01C701B6010E9489126B017C012197DE
:10130600D1F620E030E048EC52E40E94BB126B01BB
:101316007C0160911C0170911D01072E000C880B49
:10132600990B0E94650F9B01AC01C701B6010E9493
:10133600BB12DF91CF911F910F91FF90EF90DF903D
:0C134600CF90BF90AF909F908F900895C3
:10135200A2E0B0E0EFEAF9E00C9404114C016B0159
:10136200FB0122813381A480B580808191819A839F
:10137200898366807780FA012080318042805380A1
:10138200B201A10157FE07C044275527BA014219ED
:1013920053096409750937FD03C08D7F9A838983D8
:1013A200950157FC05C0898182FD02C083FF02C0FE
:1013B20021503109CE0101967C010AE010E0C601FC
:1013C2000E943C0C57FC03C0298122FF0AC00197EE
:1013D200F301E80FF91F57FC02C02BE209C02DE20E
:1013E20007C023FF06C00197F301E80FF91F20E2AF
:1013F2002083E980FA80F601208531852150310968
:10140200281B390B860D971DAC0160E88501C401CC
:101412000E943D0E9C01F4018081918190FF06C0E3
:10142200F60182819381821793070CF4C9012296F7
:06143200E2E10C945611EA
:101438008F929F92AF92BF92CF92DF92EF92FF92DC
:101448000F931F938B019C0157E1369527951795AC
:1014580007955A95D1F71127A8014F5751094731D8
:1014680051050CF045C057FD2DC00FEF1FEF2FE7BA
:1014780030E004C035952795179507954A95D2F71A
:101488004801590186229722A822B92289288A2848
:101498008B2871F197FF07C0DC01CB01800F911FEA
:1014A800A21FB31F02C0DC01CB0100951095209547
:1014B800309580239123A223B323482F392F2A2F35
:1014C8005B2F1AC097FF0FC08B019C01000F111FE3
:1014D800221F331F012B022B032B51F040E030E079
:1014E80020E85FEB09C040E030E020E050E004C0B5
:1014F800462F372F282F592F642F732F822F952F80
:101508001F910F91FF90EF90DF90CF90BF90AF9019
:061518009F908F900895E2
:10151E0010C00E94961258F00E948F1240F029F4CB
:10152E005F3F29F00C94AB1251110C949E120C9447
:10153E00C3120E94A01068F39923B1F3552391F3BF
:10154E00951B550BBB27AA2762177307840738F024
:10155E009F5F5F4F220F331F441FAA1FA9F335D081
:10156E000E2E3AF0E0E832D091505040E695001C35
:10157E00CAF72BD0FE2F29D0660F771F881FBB1FEF
:10158E00261737074807AB07B0E809F0BB0B802DCD
:10159E00BF01FF2793585F4F3AF09E3F510578F0F9
:1015AE000C94AB120C949E125F3FE4F3983ED4F36E
:1015BE00869577956795B795F7959F5FC9F7880FCD
:1015CE00911D9695879597F90895E1E0660F771F1F
:1015DE00881FBB1F621773078407BA0720F0621BB0
:0E15EE00730B840BBA0BEE1F88F7E09508957F
:1015FC00CF93DF93DC01F90168387105F1F05CF4ED
:10160C006138710561F164387105C9F16038710593
:10161C0009F056C034C0603C710561F1603F710542
:10162C0009F443C0603A710509F04AC0C081D18108
:10163C00CE010296918380832AC0C081D181CE01D4
:10164C00029691838083452B39F04881042E000C3F
:10165C00550B660B770B21C0488150E02EC0C08122
:10166C00D181CE01049691838083488159816A810E
:10167C007B8113C0C081D181CE0102961AC0C0817A
:10168C00D181CE01029691838083452BA1F04881B4
:10169C005981052E000C660B770B4D935D936D9362
:1016AC007C93139781E090E00DC0C081D181CE0175
:1016BC000396918380834881598160E070E0EDCF7F
:0A16CC0080E090E0DF91CF910895D7
:1016D6000FC00E948F1238F00E94961220F09523B8
:1016E60011F00C94AB120C94C31211240C949E129C
:1016F6000E94A01070F3959FC1F3950F50E0551FFF
:10170600629FF001729FBB27F00DB11D639FAA2750
:10171600F00DB11DAA1F649F6627B00DA11D661F9F
:10172600829F2227B00DA11D621F739FB00DA11DC0
:10173600621F839FA00D611D221F749F3327A00D7A
:10174600611D231F849F600D211D822F762F6A2F16
:1017560011249F5750409AF0F1F088234AF0EE0F7B
:10176600FF1FBB1F661F771F881F91505040A9F7A8
:101776009E3F510580F00C94AB120C949E125F3F75
:10178600E4F3983ED4F3869577956795B795F795E4
:10179600E7959F5FC1F7FE2B880F911D969587955C
:0417A60097F9089512
:1017AA0011C00E948F1238F00E94961220F039F46C
:1017BA009F3F19F426F40C94C3120EF4E095E7FB4C
:1017CA000C94AB12E92F0E94A01058F3BA176207C3
:1017DA0073078407950720F079F4A6F50C949D12F7
:1017EA000EF4E0950B2EBA2FA02D0B01B901900132
:1017FA000C01CA01A0011124FF27591B99F0593F76
:10180A0050F4503E68F11A16F040A22F232F342FBD
:10181A004427585FF3CF469537952795A795F0400B
:10182A005395C9F77EF41F16BA0B620B730B840B20
:10183A00BAF09150A1F0FF0FBB1F661F771F881FD8
:10184A00C2F70EC0BA0F621F731F841F48F4879530
:10185A0077956795B795F7959E3F08F0B0CF939522
:0E186A00880F08F09927EE0F9795879508953F
:10187800A0E0B0E0E2E4FCE00C940611DC012801F1
:101888001696AD90BC901797F701808191811296BA
:10189800ED91FC9113971896CD91DC9119972197AA
:1018A800F7FF02C0E1E0F0E0CA0DDB1D1882690114
:1018B800A1E0B0E08F01021B130B4C01F2E08F2274
:1018C8009924052C000C66087708CE018A199B0913
:1018D800CA15DB0519F1411551056105710589F036
:1018E800CB01BA01A30192010E94C210CA01A62F1E
:1018F800B72F605D6A9341E0C41AD108A901BC0101
:10190800E4CF98012C0D3D1D121613064CF31C1440
:101918001D0434F48114910419F702C080E090E0AA
:10192800AB2B31F4F701208131812F7E3183208365
:0A193800CDB7DEB7E0E10C945811C2
:10194200A2E0B0E0E7EAFCE00C9408115C016B0154
:10195200FB012281338184809580808191819A83E9
:1019620089836680778037FD03C08D7F9A83898360
:10197200FA014081518162817381CE0101967C011D
:1019820008E010E09401C6010E943C0C298124FF6A
:1019920006C00197F301E80FF91F20E32083298194
:1019A20023FF06C00197F301E80FF91F20E220830D
:1019B200E980FA80F6012085318521503109281B02
:1019C200390B860D971DAC0160E88401C5010E94A8
:1019D2003D0E9C01F5018081918190FF06C0F601C8
:1019E20082819381821793070CF4C9012296EEE05B
:0419F2000C945A11E6
:1019F600DF92EF92FF920F931F93CF93DF93EC0149
:101A06008C01007F112708600E945D120F2EFAE1FB
:101A1600EF2EF1E0FF2EF02DF7018081880F0E9456
:101A26003E12802F84600E943E128FE39FE1019751
:101A3600F1F700C00000802F8B7F0E943E120CEB56
:101A460010E00F2EF4E9DF2EF02DF801D082C295BA
:101A5600D295D07FDC27C07FDC27C8600E945D124C
:101A6600F7018081880F0E943E128C2F84600E94AD
:101A76003E128FE39FE10197F1F700C000008C2F23
:101A86008B7F0E943E12F801D082DF91CF911F9189
:0A1A96000F91FF90EF90DF9008958C
:101AA0006F927F928F92EF92FF920F931F93CF933B
:101AB000DF93CDB7DEB761970FB6F894DEBF0FBEE8
:101AC000CDBFFE01319651E1DF011D925A95E9F734
:101AD000A2E0B1E0BA83A9839C838B8377FF09C01E
:101AE0008FE490E090930101809300018FEF9FEFCE
:101AF00019C03901842E7C01615071097F836E8386
:101B00009801682DA301CF010E9471114885598564
:101B10002E813F814217530708F49A01F701E20F23
:101B2000F31F108261960FB6F894DEBF0FBECDBFD3
:101B3000DF91CF911F910F91FF90EF908F907F9049
:041B40006F90089505
:101B4400CF92DF92EF92DC0190E0292F30E0220F58
:101B5400331F6901032E000CEE086E2DA601475DAC
:101B64005E4F6F4F6A01E62EFA018491E7FC808193
:101B740081110DC02F5F3F4F032E000C440B275DD6
:101B84003E4F4F4FF901849147FD808124C0CD9091
:101B9400DD90EC901297F6014491E7FC40818413A8
:101BA40015C02F5F3F4F032E000C440B275D3E4FA3
:101BB4004F4FF901949147FD90815FEFC51AD50A03
:101BC400E50ACD92DD92EC92129701C09F5F9B30A3
:0E1BD40008F4BBCF892FEF90DF90CF900895DB
:101BE2000F931F93CF93DF93DB01109719F48FEFBD
:101BF2009FEF3DC02D913C91119730FF25C0179664
:101C02004D915C91189715962D913C91169742171C
:101C1200530778F41296ED91FC91139780831296F4
:101C22002D913C9113972F5F3F4F13963C932E9328
:101C3200129717962D913C9118972F5F3F4F189648
:101C42003C932E93179713C01D96ED91FC911E970E
:101C5200309769F2EB01092F182F0995892B39F674
:101C62008F819885019698878F83812F902FDF919E
:081C7200CF911F910F9108951D
:101C7A006F927F928F92AF92BF92CF92DF92EF9242
:101C8A00FF920F931F93CF93DF935C013A01862E45
:101C9A00E901670181E0C822DD24E0FC03C02017C6
:101CAA00310758F09E01682DA301C5010E94191041
:101CBA00C017D10710F0CE0118C07801EC1AFD0A3E
:101CCA00E114F10449F0B50180E290E00E94F10DBF
:101CDA0081E0E81AF108F4CFCD2831F49E01682D8D
:101CEA00A301C5010E941910C801DF91CF911F916C
:101CFA000F91FF90EF90DF90CF90BF90AF908F90B1
:061D0A007F906F90089528
:101D1000A3E8B0E0EEE8FEE00C940A115C01490192
:101D2000CF57DF4F488359836A83C158D040C12CB5
:101D3000D12CCF57DF4F2881C158D040CE57DF4F2D
:101D40009881C258D040CD57DF4F8881C358D040CA
:101D5000E22FF92F949187FD90819923E9F0740186
:101D6000860120E830E0AE014F5F5F4FBE016F5744
:101D70007F4FC5010E945A048C0D9D1D8C159D0539
:101D80004CF48FE490E090930101809300018FEF79
:101D90009FEF03C06C01CDCFC601CD57DF4FECE004
:041DA0000C945C1132
:101DA400EF92FF920F931F93CF93DF93C82FD82FF7
:101DB400D07F0E945D120F2EFAE1EF2EF1E0FF2E8C
:101DC400F02DF7018081880F0E943E128D2F8D60C7
:101DD4000E943E128FE39FE10197F1F700C00000DB
:101DE4008D2F89600E943E120CEB10E0D4E9F801BB
:101DF400D083C295C07F0E945D12F7018081880F55
:101E04000E943E128C2F8D600E943E128FE39FE150
:101E14000197F1F700C000008C2F89600E943E12E8
:101E2400F801D083DF91CF911F910F91FF90EF9034
:021E340008950F
:101E3600A2E0B0E0E1E2FFE00C9408115C016B0166
:101E4600FB012281338184809580808191819A83F0
:101E560089836680778037FD03C08D7F9A83898367
:101E6600FA014081518162817381CE0101967C0124
:101E76000AE010E09401C6010E943C0CE980FA8059
:101E8600F6012085318521503109281B390B860D35
:101E9600971DAC0160E88401C5010E943D0E9C01BE
:101EA600F5018081918190FF06C0F60182819381C0
:101EB600821793070CF4C9012296EEE00C945A118E
:101EC600E89409C097FB3EF49095809570956195CE
:101ED6007F4F8F4F9F4F9923A9F0F92F96E9BB2784
:101EE6009395F695879577956795B795F111F8CF00
:101EF600FAF4BB0F11F460FF1BC06F5F7F4F8F4F6B
:101F06009F4F16C0882311F096E911C0772321F060
:101F16009EE8872F762F05C0662371F096E8862FF8
:101F260070E060E02AF09A95660F771F881FDAF74F
:0A1F3600880F9695879597F9089596
:101F40006F927F928F92CF92DF92EF92FF920F93D8
:101F50001F93CF93DF936C01FB013901842EC801DD
:101F6000C281D38104811581E080F180232B242B51
:101F700031F42FE4622E21E0722E20E0822E0097B1
:101F800021F4882DB3010E94A011D7FD04C0C81709
:101F9000D90708F4CE019C01682DA301C6010E9457
:101FA0003D0EDF91CF911F910F91FF90EF90DF9049
:0A1FB000CF908F907F906F900895FE
:101FBA00DC012D913D914C911297F901849147FDD5
:101FCA0080818A3221F080E090E07AE011C02F5FB0
:101FDA003F4F4F4F2D933D934C93DB01ED91FC9175
:101FEA001197CF0102968D939C93808191810895D8
:101FFA002D913D914C911297F901549147FD5081D1
:10200A0050535A3080F4789FF001799FF00D1124D3
:10201A00CF01850F911D2F5F3F4F4F4F2D933D935A
:08202A004C931297E5CF0895D5
:102032006F927F928F92CF92DF92EF920F931F93C4
:10204200CF93DF938C016A01E62EE9013A01862ED5
:10205200620E731E811C37FD8A94C614D704E804ED
:1020620079F0F6018491E7FC8081B801082E000C1A
:10207200990B0E94F10D8FEFC81AD80AE80AEDCF2A
:10208200CE01DF91CF911F910F91EF90DF90CF9012
:082092008F907F906F9008957C
:10209A000E94A81088F09F5798F0B92F9927B75136
:1020AA00B0F0E1F0660F771F881F991F1AF0BA95F2
:1020BA00C9F714C0B13091F00E949D12B1E00895A1
:1020CA000C949D12672F782F8827B85F39F0B93F93
:1020DA00CCF3869577956795B395D9F73EF49095A5
:0E20EA008095709561957F4F8F4F9F4F0895A1
:1020F800990F0008550FAA0BE0E8FEEF1616170611
:10210800E807F907C0F012161306E407F50798F078
:10211800621B730B840B950B39F40A2661F0232B91
:10212800242B252B21F408950A2609F4A140A6950D
:082138008FEF811D811D089548
:1021400057FD9058440F551F59F05F3F71F0479568
:10215000880F97FB991F61F09F3F79F0879508954D
:10216000121613061406551FF2CF4695F1DF08C06C
:10217000161617061806991FF1CF86957105610589
:042180000894089522
:10218400A1E21A2EAA1BBB1BFD010DC0AA1FBB1F77
:10219400EE1FFF1FA217B307E407F50720F0A21BE9
:1021A400B30BE40BF50B661F771F881F991F1A9456
:1021B40069F760957095809590959B01AC01BD0180
:0421C400CF010895AA
:1021C800FA0160387105CCF0623871051CF063388B
:1021D800710599F4A081B1819D012C5F3F4F318336
:1021E80020834D915D916D917C91FC0140835183D9
:1021F8006283738381E090E0089580E090E0089521
:102208002F923F924F925F926F927F928F929F92FE
:10221800AF92BF92CF92DF92EF92FF920F931F93EC
:10222800CF93DF93CDB7DEB7CA1BDB0B0FB6F8949D
:08223800DEBF0FBECDBF09940B
:102240005A9A5B984A99FECF28E180E090E0DC0141
:102250005B9A880F991FAA1FBB1F5B984A9B03C0FC
:102260000196A11DB11D215099F75B9A5B98BC01A5
:06227000CD018058089525
:10227600CF92DF92EF926B01E82EFB018491E7FC8F
:102286008081882361F00E94D20E8FEFC81AD80A87
:10229600E80AF6018491E7FC80818111F4CFEF9082
:0622A600DF90CF900895C7
:1022AC002A88398848885F846E847D848C849B84DA
:1022BC00AA84B984C884DF80EE80FD800C811B81E8
:1022CC00AA81B981CE0FD11D0FB6F894DEBF0FBE17
:0622DC00CDBFED010895E5
:1022E200A2E0B0E0E7E7F1E10C9412118C013A832D
:1022F20029839E012F5F3F4F0E94880EF8012081A3
:1023020024FF02C08FEF9FEF2296E4E00C94641149
:10231200052E97FB1EF400940E94781257FD07D0F9
:102322000E94C21007FC03D04EF40C947812509510
:0E2332004095309521953F4F4F4F5F4F0895D6
:10234000CF92DF92EF926B01E82EA82FCB01FC0118
:102350002491A7FD2081222319F00196A11DF7CF1A
:0C2360008C199D09EF90DF90CF9008953C
:10236C0082E090E00E94FB0C88E290E00E94FB0C63
:10237C008CE090E00E94FB0C81E090E00E94FB0C52
:0A238C0080E890E00E94FB0C089529
:1023960097FB072E16F4009407D077FD09D00E940C
:1023A600DF1107FC05D03EF4909581959F4F089567
:0823B600709561957F4F0895B9
:1023BE00AA1BBB1B51E107C0AA1FBB1FA617B7075D
:1023CE0010F0A61BB70B881F991F5A95A9F7809579
:0823DE009095BC01CD010895AA
:1023E600A0E0B0E0E9EFF1E10C9414119E01265F44
:1023F6003F4F4F81588569858D819E810E9432129B
:06240600E2E00C946611F7
:10240C00092E0394000C11F4882352F0BB0F40F4F6
:10241C00BF2B11F460FF04C06F5F7F4F8F4F9F4F36
:02242C00089511
:10242E009A01462FDC01F901549147FD50815D93CD
:0C243E002F5F3F4F4F4F5111F6CF089514
:10244A005298539A5B982FEF81EE94E02150804086
:0A245A009040E1F700C00000089573
:102464000F931F9389019A01462F6FEF7FE70E9414
:08247400500D1F910F91089516
:10247C008093BB0084E88093BC00ECEBF0E080819F
:06248C008823ECF708951F
:10249200EC010E94CB120E94CA12CE010E94CC1201
:0624A200CE010E94C812E9
:1024A8001092B90084E08093BC0088E48093B8005F
:0224B800089585
:1024BA0084EA8093BC00ECEBF0E080818823ECF79F
:0224CA00089573
:1024CC00FC01480F591FE417F50711F06193FBCF7E
:0224DC00089561
:1024DE009C01215631092A31310510F48F75992747
:0224EE0008954F
:1024F00090958095709561957F4F8F4F9F4F089570
:102500009C01215431092A31310508F48062089573
:0E2510005058BB27AA270E94D50B0C94061228
:0E251E0000240A9416161706180609060895DA
:0E252C0000240A9412161306140605060895DC
:0E253A00E894BB2766277727CB0197F9089511
:0E2548000E944D106894B1110C949E120895DB
:0C25560097F99F6780E870E060E008954E
:0A2562000E947C1008F481E0089547
:0A256C000E947C1008F48FEF089520
:082576000E948F0A0C9406126A
:08257E000E946B0B0C94061285
:062586009FEF80EC0895B8
:04258C000C940000AB
:042590000E94620043
:022594000895A8
:022596000895A6
:022598000895A4
:02259A00270018
:02259C00A70096
:00000001FF
